GMOUSE - genius mouse DRAW for 	MACRO V05.06R Thursday 05-Sep-19 08:34
Table of contents

    2- 462	common definitions for bios monitor
GMOUSE - genius mouse DRAW for 	MACRO V05.06R Thursday 05-Sep-19 08:34  Page 1


      1					;//////////////////////////////////////////////////////////////////////////
      2					;		SCREEN support for a "mouse" (for example GENIUS)
      3					;
      4					;		Have a nice game with a ... GENIUS mouse !
      5					;
      6					;			       $$$$$$$$$
      7					;				part II
      8					;			       $$$$$$$$$
      9					;
     10					;		Special driver for PC-11/16 only
     11					;		All rights reserved
     12					;
     13					;				       copyright (c) 1994 Maxim V. Sapronov
     14					;,,,,,,,,,,,,,,,,,,,,,,,,,,,,,,,,,,,,,,,,,,,,,,,,,,,,,,,,,,,,,,,,,,,,,,,,,,
     15
     16						.title		GMOUSE - genius mouse DRAW for xPROS
     17						.dsabl		GBL
     18						.mcall		.push,.pop,.exit
     19
GMOUSE - genius mouse DRAW for 	MACRO V05.06R Thursday 05-Sep-19 08:34  Page 3
Common definitions for bios monitor

      2
      3					;//////////////////////////////////////////////////////////////////////////
      4	000000						.asect
      5		000000 					. =	0
      6	000000	041520 	000000 	000000 			.word		"PC,0,0,0
	000006	000000
      7	000010	   107 	   115 	   040 			.asciz		"GM image xPROS"
	000013	   151 	   155 	   141
	000016	   147 	   145 	   040
	000021	   170 	   120 	   122
	000024	   117 	   123 	   000
      8		001000 					. =	1000
      9	000000						.psect		PROGRAM,GBL
     10					;,,,,,,,,,,,,,,,,,,,,,,,,,,,,,,,,,,,,,,,,,,,,,,,,,,,,,,,,,,,,,,,,,,,,,,,,,,
     11
     12		176210 				Xmouse	  =		176210
     13		176212 				Ymouse	  =		176212
     14		176214 				MarkStat  =		176214
     15		176204 				MCSR	  =		176204
     16		060010 				ScrBase	  =		 60010
     17
     18		000014 				PicHeight =		    12.
     19
     20					;//////////////////////////////////////////////////////////////////////////
     21					;				MAIN PROGRAM
     22					;,,,,,,,,,,,,,,,,,,,,,,,,,,,,,,,,,,,,,,,,,,,,,,,,,,,,,,,,,,,,,,,,,,,,,,,,,,
     23
     24	000000				begin:	.exit
     25	000002	012737 	000040 	176204 		mov	#40,	@#MCSR
     26	000010	000240 				<nop>
     27	000012					UNPREG	#MarkStat
     28	000022					PROREG	#TCUC
     29	000032					SETPRI	#100
     30
     31	000042	012704 	000104'		1$:	mov	#3$,	R4		; ãÁ÷ òóøïÁË úÞü T/O
     32	000046	012703 	000001 			mov	#1,	R3		; ãüÀø÷ Áüç÷ð òøÎ T/O
     33	000052	012700 	000102'			mov	#2$,	R0		; ?÷òúÞ÷ñÞïýýï òøÎ ùóâïùÎÁÊÅ
     34	000056	010001 				mov	R0,	R1		;
     35	000060	010002 				mov	R0,	R2		;
     36	000062					WAITINT	#M.TIO			; 6òóý T/O üøü âïúüÀü ð ÞóñüÀÁÞ
     37	000072	012746 	000042'			mov	#1$,	-(sp)		; ?÷ÀøóòùÎÎ ú÷òúÞ÷ñÞïýýï
     38	000076	010246 				mov	R2,	-(sp)		;
     39	000100	004011 				jsr	R0,	(R1)		; 2ÊâÊðïóý ú÷ ÷ÃóÞóòü
     40	000102	000207 			2$:	RETURN
     41
     42	000104	005767 	014730 		3$:	tst	Exist			; =ïò÷ úÞ÷ÞüÀ÷ðÊðïÁË?
     43	000110	001027 				bne	5$			; =óÁ - æòóý òïøËÕó
     44
     45	000112	013704 	176210 			mov	@#Xmouse, R4		; :÷÷ÞòüùïÁï XÆ[0..831.]
     46	000116	013705 	176212 			mov	@#Ymouse, R5
     47	000122	006304 				asl	R4			; :÷÷ÞòüùïÁï XÆ[0..1663.]
     48
     49	000124	020467 	014704 			cmp	R4,	X.prev		; 1Êø÷ øü ÀýóÈóùüó ÷Áù÷ÀüÁóøËù÷
     50	000130	001003 				bne	4$			;  úÞóòÊòÖÈóñ÷ ú÷ø÷æóùüÎ
     51	000132	020567 	014700 			cmp	R5,	Y.prev		;  çÖÞÀ÷Þï?
     52	000136	001414 				beq	5$			;
     53
GMOUSE - genius mouse DRAW for 	MACRO V05.06R Thursday 05-Sep-19 08:34  Page 3-1
Common definitions for bios monitor

     54	000140	010467 	014662 		4$:	mov	R4,	X.		; 1Êø÷ ÀýóÈóùüó - âïú÷ýùüý ù÷ðÊó
     55	000144	010567 	014660 			mov	R5,	Y.		;  ç÷÷ÞòüùïÁÊ,
     56	000150	010467 	014660 			mov	R4,	X.prev		;
     57	000154	010567 	014656 			mov	R5,	Y.prev		;
     58	000160	004767 	000006 			call	HideMarker		;  À÷ÁÞóý
     59	000164	004767 	000122 			call	ShowMarker		;  ü ùïÞüÀÖóý çÖÞÀ÷Þ
     60
     61	000170	000207 			5$:	return
     62
     63
     64					;//////////////////////////////////////////////////////////////////////////
     65					;				SUBROUTINE
     66					;	HideMarker - ÖÿüÞïóÁ çÖÞÀ÷Þ. 8ùÄ÷ÞýïÔüÎ òøÎ ð÷ÀÀÁïù÷ðøóùüÎ
     67					;	÷ÿøïÀÁü  -  FIELD. àÁÞÖçÁÖÞï FIELD ÀøóòÖÍÈïÎ:
     68					;			2ÊÀ÷Áï_>ÿøïÁü
     69					;			 õüÞüùï_àÁÞ÷çü_ð_1ïûÁïÅ
     70					;			 àø÷ð÷_òøÎ_4üÀúóÁÃóÞï_?ïýÎÁü
     71					;			 0òÞóÀ_>7ö (òøÎ UR3)
     72					;			      <1ïûÁÊ>
     73					;			 õüÞüùï_àÁÞ÷çü_ð_1ïûÁïÅ
     74					;			     <e.t.c.>
     75					;
     76					;	Called from: MAIN PROGRAM, SetMarker
     77					;,,,,,,,,,,,,,,,,,,,,,,,,,,,,,,,,,,,,,,,,,,,,,,,,,,,,,,,,,,,,,,,,,,,,,,,,,,
     78
     79	000172				HideMarker:
     80	000172					.push	<@#UR3>
     81
     82	000176	012704 	015100'			mov	#Field,	R4
     83	000202	012403 				mov	(R4)+,	R3		; 2ÊÀ÷Áï ÷ÿøïÀÁü
     84
     85	000204	005303 			1$:	dec	R3
     86	000206	100436 				bmi	3$
     87
     88	000210	112400 				movb	(R4)+,	R0		; àÁïÞÕïÎ ÃïÀÁË ÕüÞüùÊ
     89	000212	000300 				swab	R0
     90	000214	042700 	000377 			bic	#377,	R0
     91	000220	112401 				movb	(R4)+,	R1		; <øïòÕïÎ ÃïÀÁË ÕüÞüùÊ
     92	000222	042701 	177400 			bic	#177400,R1
     93	000226	050100 				bis	R1,	R0		; à÷ÿÀÁðóùù÷, òøüùï
     94
     95	000230	112402 				movb	(R4)+,	R2		; àÁïÞÕïÎ ÃïÀÁË ÞóñüÀÁÞï òüÀúóÁÃóÞï
     96	000232	000302 				swab	R2
     97	000234	042702 	000377 			bic	#377,	R2
     98	000240	112401 				movb	(R4)+,	R1		; <øïòÕïÎ ÃïÀÁË ÞóñüÀÁÞï òüÀúóÁÃóÞï
     99	000242	042701 	177400 			bic	#177400,R1
    100	000246	050102 				bis	R1,	R2		; à÷ÿÀÁðóùù÷, ÞóñüÀÁÞ
    101	000250	010237 	161226 			mov	R2,	@#UR3
    102
    103	000254	112402 				movb	(R4)+,	R2		; àÁïÞÕïÎ ÃïÀÁË ïòÞóÀï ð >7ö
    104	000256	000302 				swab	R2
    105	000260	042702 	000377 			bic	#377,	R2
    106	000264	112401 				movb	(R4)+,	R1		; <øïòÕïÎ ÃïÀÁË ïòÞóÀï
    107	000266	042701 	177400 			bic	#177400,R1
    108	000272	050102 				bis	R1,	R2		; à÷ÿÀÁðóùù÷, ïòÞóÀ
    109
    110	000274	005300 			2$:	dec	R0
GMOUSE - genius mouse DRAW for 	MACRO V05.06R Thursday 05-Sep-19 08:34  Page 3-2
Common definitions for bios monitor

    111	000276	100742 				bmi	1$
    112	000300	112422 				movb	(R4)+,	(R2)+
    113	000302	000774 				br	2$
    114
    115	000304				3$:	.pop	<@#UR3>
    116	000310	000207 				return
    117
    118					;//////////////////////////////////////////////////////////////////////////
    119					;				SUBROUTINE
    120					;	ShowMarker - ÞüÀÖóÁ çÖÞÀ÷Þ. :÷÷ÞòüùïÁÊ - X ü Y
    121					;		     ò÷øæùÊ ùïÅ÷òüÁËÀÎ ð òüïúïâ÷ùó [0,1663]
    122					;
    123					;	Called from: MAIN PROGRAM, SetMarker
    124					;,,,,,,,,,,,,,,,,,,,,,,,,,,,,,,,,,,,,,,,,,,,,,,,,,,,,,,,,,,,,,,,,,,,,,,,,,,
    125
    126	000312				ShowMarker:
    127	000312					.push	<@#UR3>
    128	000316	012767 	177777 	000074 		mov	#-1,	2$
    129	000324	012767 	177777 	000076 		mov	#-1,	3$
    130	000332	005005 				clr	R5
    131	000334	005067 	014514 			clr	ModeOffset
    132	000340	005067 	014512 			clr	ModeOffset+2
    133	000344	005067 	014510 			clr	ModeOffset+4
    134	000350	005067 	014506 			clr	ModeOffset+6
    135	000354	016767 	014450 	014450 		mov	Y.,	Y.now
    136	000362	012704 	015102'			mov	#<Field+2>, R4		; =ó ÁÞ÷ñïóý ðÊÀ÷ÁÖ
    137	000366	005067 	014432 			clr	Y.offset
    138
    139	000372				1$:	.push	<R4,R5>
    140	000376	016704 	014424 			mov	X.,	R4
    141	000402	016705 	014424 			mov	Y.now,	R5
    142	000406	004767 	000316 			call	lookLine
    143	000412					.pop	<R5>
    144
    145	000414	026727 	014400 			cmp	Register, (PC)+
    146	000420	000000 			2$:	.word	0
    147	000422	001006 				bne	4$
    148	000424	026727 	014372 			cmp	MemOffset, (PC)+
    149	000430	000000 			3$:	.word	0
    150	000432	001002 				bne	4$
    151	000434					.pop	<R4>
    152	000436	000471 				br	8$
    153
    154	000440	016737 	014354 	161226 	4$:	mov	Register, @#UR3
    155	000446	016701 	014350 			mov	MemOffset, R1
    156	000452	066701 	014334 			add	theByte, R1
    157
    158	000456	016703 	014326 			mov	Mode,	R3
    159	000462	006303 				asl	R3
    160	000464	016304 	015054'			mov	ModeOffset(R3), R4
    161	000470	066703 	014346 			add	MarkNumber, R3
    162	000474	016300 	002130'			mov	Wide(R3),  R0
    163	000500	016303 	001604'			mov	Modes(R3), R3
    164	000504	066703 	014304 			add	theDot,	R3
    165	000510	012302 				mov	(R3)+,	R2
    166	000512	011303 				mov	(R3),	R3
    167	000514	060402 				add	R4,	R2
GMOUSE - genius mouse DRAW for 	MACRO V05.06R Thursday 05-Sep-19 08:34  Page 3-3
Common definitions for bios monitor

    168	000516	060403 				add	R4,	R3
    169
    170	000520	010046 				mov	R0,	-(SP)
    171	000522	066700 	014264 			add	theByte,R0
    172	000526	005400 				neg	R0
    173	000530	066700 	014262 			add	ColLength, R0
    174	000534	100402 				bmi	5$
    175	000536	012600 				mov	(SP)+,	R0
    176	000540	000402 				br	6$
    177
    178	000542	062600 			5$:	add	(SP)+,	R0
    179	000544	005200 				inc	R0
    180
    181	000546				6$:	.pop	<R4>
    182	000550	000300 				swab	R0
    183	000552	110024 				movb	R0,	(R4)+
    184	000554	000300 				swab	R0
    185	000556	110024 				movb	R0,	(R4)+
    186	000560	000367 	014234 			swab	Register
    187	000564	116724 	014230 			movb	Register, (R4)+
    188	000570	000367 	014224 			swab	Register
    189	000574	116724 	014220 			movb	Register, (R4)+
    190	000600	000301 				swab	R1
    191	000602	110124 				movb	R1,	(R4)+
    192	000604	000301 				swab	R1
    193	000606	110124 				movb	R1,	(R4)+
    194
    195	000610	111124 			7$:	movb	(R1),	(R4)+
    196	000612	142311 				bicb	(R3)+,	(R1)
    197	000614	152221 				bisb	(R2)+,	(R1)+
    198	000616	077004 				sob	R0,	7$
    199
    200	000620	005205 				inc	R5
    201	000622	005267 	014204 		8$:	inc	Y.now
    202	000626	005267 	014172 			inc	Y.offset
    203
    204	000632	016767 	014162 	177560 		mov	Register,  2$
    205	000640	016767 	014156 	177562 		mov	MemOffset, 3$
    206
    207	000646	066767 	014172 	014200 		add	Mark1offset,	ModeOffset
    208	000654	066767 	014166 	014174 		add	Mark2offset,	ModeOffset+2
    209	000662	066767 	014162 	014170 		add	Mark4offset,	ModeOffset+4
    210	000670	066767 	014156 	014164 		add	Mark8offset,	ModeOffset+6
    211
    212	000676	026727 	014130 	000454 		cmp	Y.now,	#300.
    213	000704	103004 				bhis	9$
    214	000706	026727 	014112 	000014 		cmp	Y.offset, #PicHeight
    215	000714	103626 				blo	1$
    216	000716	010567 	014156 		9$:	mov	R5,	Field
    217	000722					.pop	<@#UR3>
    218	000726	000207 				return
    219
    220
    221					;//////////////////////////////////////////////////////////////////////////
    222					;				SUBROUTINE
    223					;		8ÀÅ÷òùÊó òïùùÊó - R4 - <X>, R5 - <Y>
    224					;		 ú÷ ÌÁüý òïùùÊý ÷úÞóòóøÎóÁÀÎ ÷ÁÞóâ÷ç ð ÀÁÞ÷çó
GMOUSE - genius mouse DRAW for 	MACRO V05.06R Thursday 05-Sep-19 08:34  Page 3-4
Common definitions for bios monitor

    225					;		 À ïòÞóÀ÷ý Register:MemOffset, À úÞïðÊý ÿïûÁ÷ý
    226					;		 # ColLength, ÷úÁüýïøËù÷ó ÀýóÈóùüó - theByte
    227					;		 úüçÀóø ð ÿïûÁó - theDot. 2üòó÷Þóæüý òøÎ ÷ÁÞóâçï
    228					;		 Mode.
    229					;
    230					;		Called from: ShowCursor
    231					;,,,,,,,,,,,,,,,,,,,,,,,,,,,,,,,,,,,,,,,,,,,,,,,,,,,,,,,,,,,,,,,,,,,,,,,,,,
    232
    233	000730				lookLine:
    234	000730	010401 				mov	R4,	R1		; 2ÊÃüÀøÎóý ù÷ýóÞ ú÷ø÷Àçü, ð
    235	000732	006301 				asl	R1			;  ç÷Á÷Þ÷û ùïÅ÷òÁÀÎ ÿïûÁ
    236	000734	006301 				asl	R1			;  úÖÁóý òóøóùüÎ ùï 64.
    237	000736	042701 	000377 			bic	#377,	R1		;  Á.ó. 8(pixel/byte)*8(byte/cut)
    238	000742	000301 				swab	R1			;
    239	000744	005201 				inc	R1			; NOP!
    240	000746	010146 				mov	R1,	-(sp)
    241
    242	000750	010500 				mov	R5,	R0		; 2ÊÃüÀøÎóý ïòÞóÀ ÀÁÞ÷çü,
    243	000752	006300 				asl	R0			;  ð ç÷Á÷Þ÷û ùïÅ÷òüÁÀÎ ùïÕ ÿïûÁ
    244	000754	006300 				asl	R0
    245
    246	000756	012737 	001000 	161226 		mov	#1000,	@#UR3
    247	000764	062700 	060010 			add	#ScrBase, R0
    248	000770	004767 	000270 			call	bltMemory
    249
    250	000774	012603 				mov	(sp)+,	R3
    251	000776	010237 	161226 			mov	R2,	@#UR3
    252	001002	005000 				clr	R0
    253
    254	001004	016104 	000002 		1$:	mov	2(R1),	R4
    255
    256	001010	006204 				asr	R4
    257	001012	006204 				asr	R4
    258	001014	000304 				swab	R4
    259	001016	052704 	177740 			bis	#177740, R4
    260	001022	005404 				neg	R4
    261	001024	020427 	000032 			cmp	R4,	#26.
    262	001030	101403 				blos	2$
    263	001032	012704 	000032 			mov	#26.,	R4
    264	001036	160004 				sub	R0,	R4
    265	001040	060400 			2$:	add	R4,	R0
    266	001042	020003 				cmp	R0,	R3
    267	001044	103002 				bhis	3$			; BHI
    268	001046	022121 				cmp	(R1)+,	(R1)+
    269	001050	000755 				br	1$
    270
    271	001052	160400 			3$:	sub	R4,	R0
    272	001054	006304 				asl	R4			; ãüÀø÷ ú÷ø÷À÷ç * 8 ÿïûÁ
    273	001056	006304 				asl	R4			;  ú÷øÖÃüý òøüùÖ ú÷ø÷Àçü ð ÿïûÁïÅ
    274	001060	006304 				asl	R4			;
    275	001062	010467 	013730 			mov	R4,	ColLength
    276	001066	072027 	000006 			ash	#6,	R0
    277	001072	016704 	013730 			mov	X.,	R4
    278	001076	160004 				sub	R0,	R4		; >ÁÀÁÖú ÷Á ùïÃïøï ÷ÁÞóâçï ð Á÷ÃçïÅ
    279	001100	016146 	000002 			mov	2(R1),	-(sp)
    280	001104	010100 				mov	R1,	R0
    281	001106	004767 	000152 			call	bltMemory
GMOUSE - genius mouse DRAW for 	MACRO V05.06R Thursday 05-Sep-19 08:34  Page 3-5
Common definitions for bios monitor

    282	001112	010267 	013702 			mov	R2,	Register
    283	001116	010167 	013700 			mov	R1,	MemOffset
    284	001122	032716 	001000 			bit	#1000,	(sp)
    285	001126	001404 				beq	4$
    286	001130	032716 	000400 			bit	#400,	(sp)
    287	001134	001007 				bne	6$
    288	001136	000403 				br	5$			; þïÀÁÎæçï ð 2 Þïâï
    289	001140	006204 			4$:	asr	R4			; þïÀÁÎæçï ð 4 Þïâï
    290	001142	006267 	013650 			asr	ColLength
    291	001146	006204 			5$:	asr	R4
    292	001150	006267 	013642 			asr	ColLength
    293	001154	010446 			6$:	mov	R4,	-(sp)
    294	001156	072427 	177775 			ash	#-3,	R4		; =÷ýóÞ ÿïûÁï ð ÷ÁÞóâçó
    295	001162	010467 	013624 			mov	R4,	theByte
    296	001166	012604 				mov	(sp)+,	R4
    297	001170	042704 	177770 			bic	#^C7,	R4
    298	001174	012601 				mov	(sp)+,	R1		; 1óâ ÞïÀÁÎæçü
    299
    300	001176	005000 				clr	R0
    301	001200	032701 	000300 			bit	#300,	R1
    302	001204	001414 				beq	9$
    303	001206	032701 	000200 			bit	#200,	R1
    304	001212	001410 				beq	8$
    305	001214	032701 	000100 			bit	#100,	R1
    306	001220	001404 				beq	7$
    307	001222	032701 	100000 			bit	#100000,R1
    308	001226	001401 				beq	7$
    309	001230	005200 				inc	R0			; VM8
    310	001232	005200 			7$:	inc	R0			; VM4
    311	001234	005200 			8$:	inc	R0			; VM2
    312	001236	010067 	013546 		9$:	mov	R0,	Mode		; VM1
    313	001242	005400 				neg	R0
    314	001244	072400 				ash	R0,	R4
    315	001246	006304 				asl	R4
    316	001250	006304 				asl	R4
    317	001252	010467 	013536 			mov	R4,	theDot
    318	001256	005367 	013534 			dec	ColLength		; =÷ýóÞ Àïý÷ñ÷ úÞïð÷ñ÷ ÿïûÁï
    319	001262	000207 				return				;  ð ú÷ø÷Àçó
    320
    321					;//////////////////////////////////////////////////////////////////////////
    322					;				SUBROUTINE
    323					;		8òóÎ òïùù÷û ú÷òúÞ÷ñÞïýýÊ âïçøÍÃïóÁÀÎ ð ðÊòóøóùüü
    324					;		 üâ 2-Å Àø÷ðù÷ñ÷ (32 ÞïâÞÎòï) Àø÷ðï Àø÷ðï òøÎ
    325					;		 ÞóñüÀÁÞï òüÀúóÁÃóÞï úïýÎÁü ü ïòÞóÀï >7ö
    326					;		 (âòóÀË òøÎ UR3).
    327					;
    328					;	Called from: LookLine
    329					;,,,,,,,,,,,,,,,,,,,,,,,,,,,,,,,,,,,,,,,,,,,,,,,,,,,,,,,,,,,,,,,,,,,,,,,,,,
    330
    331	001264				bltMemory:
    332	001264	012003 				mov	(R0)+,	R3
    333	001266	011002 				mov	(R0),	R2
    334	001270	073227 	000002 			ashc	#2,	R2
    335	001274	010301 				mov	R3,	R1
    336	001276	042702 	177700 			bic	#^C77,	R2
    337	001302	042703 	007777 			bic	#7777,	R3
    338	001306	050302 				bis	R3,	R2
GMOUSE - genius mouse DRAW for 	MACRO V05.06R Thursday 05-Sep-19 08:34  Page 3-6
Common definitions for bios monitor

    339	001310	000302 				swab	R2
    340	001312	040301 				bic	R3,	R1
    341	001314	052701 	060000 			bis	#60000,	R1		; 5Àøü R2 ú÷ø÷æüÁË ð UR3, Á÷
    342	001320	000207 				return				;  R1 ÖçïâÊðïóÁ ùï ùïÃïø÷ ÿÖÄóÞï
    343
    344					;//////////////////////////////////////////////////////////////////////////
    345					;				SUBROUTINE
    346					;	?÷òúÞ÷ñÞïýýï ÷ÿÞïÿ÷Áçü úÞóÞÊðïùüÎ úÞü ÷ÿÞïÈóùüü ú÷ âïúüÀü ç
    347					;	 ÞóñüÀÁÞÖ MCSR.
    348					;
    349					;	Called from: MAIN PROGRAM
    350					;,,,,,,,,,,,,,,,,,,,,,,,,,,,,,,,,,,,,,,,,,,,,,,,,,,,,,,,,,,,,,,,,,,,,,,,,,,
    351
    352	001322				SetMark:
    353	001322	013700 	176214 			mov	@#MarkStat, R0
    354	001326	020027 	000001 			cmp	R0,	#1
    355	001332	001011 				bne	2$
    356	001334	005767 	013500 			tst	Exist
    357	001340	001005 				bne	1$
    358	001342	004767 	176624 			call	HideMarker
    359	001346	012767 	000001 	013464 		mov	#1,	Exist
    360	001354	000207 			1$:	return
    361
    362	001356	020027 	000002 		2$:	cmp	R0,	#2
    363	001362	001027 				bne	4$
    364	001364	005767 	013450 			tst	Exist
    365	001370	001423 				beq	3$
    366
    367	001372	013704 	176210 			mov	@#Xmouse, R4		; :÷÷ÞòüùïÁï XÆ[0..831.]
    368	001376	013705 	176212 			mov	@#Ymouse, R5
    369	001402	006304 				asl	R4			; :÷÷ÞòüùïÁï XÆ[0..1663.]
    370	001404	010467 	013416 			mov	R4,	X.
    371	001410	010567 	013414 			mov	R5,	Y.
    372	001414	004767 	176672 			call	ShowMarker
    373	001420	016767 	013402 	013406 		mov	X.,	X.prev
    374	001426	016767 	013376 	013402 		mov	Y.,	Y.prev
    375
    376	001434	005067 	013400 			clr	Exist
    377	001440	000207 			3$:	return
    378
    379	001442	120027 	000003 		4$:	cmpb	R0,	#3
    380	001446	001055 				bne	5$
    381	001450	000300 				swab	R0
    382	001452	042700 	177400 			bic	#177400, R0
    383	001456	020027 	000003 			cmp	R0,	#3
    384	001462	101047 				bhi	5$
    385	001464	006300 				asl	R0
    386	001466	006300 				asl	R0
    387	001470	006300 				asl	R0
    388	001472	016067 	002130'	013344 		mov	Wide(R0),   Mark1offset
    389	001500	016067 	002132'	013340 		mov	Wide+2(R0), Mark2offset
    390	001506	016067 	002134'	013334 		mov	Wide+4(R0), Mark4offset
    391	001514	016067 	002136'	013330 		mov	Wide+6(R0), Mark8offset
    392	001522	010067 	013314 			mov	R0,	MarkNumber
    393	001526	005767 	013306 			tst	Exist
    394	001532	001023 				bne	5$
    395
GMOUSE - genius mouse DRAW for 	MACRO V05.06R Thursday 05-Sep-19 08:34  Page 3-7
Common definitions for bios monitor

    396	001534	004767 	176432 			call	HideMarker
    397	001540	013704 	176210 			mov	@#Xmouse, R4		; :÷÷ÞòüùïÁï XÆ[0..831.]
    398	001544	013705 	176212 			mov	@#Ymouse, R5
    399	001550	006304 				asl	R4			; :÷÷ÞòüùïÁï XÆ[0..1663.]
    400	001552	010467 	013250 			mov	R4,	X.
    401	001556	010567 	013246 			mov	R5,	Y.
    402	001562	004767 	176524 			call	ShowMarker
    403	001566	016767 	013234 	013240 		mov	X.,	X.prev
    404	001574	016767 	013230 	013234 		mov	Y.,	Y.prev
    405
    406	001602	000207 			5$:	return
    407
    408					;//////////////////////////////////////////////////////////////////////////
    409					;				   DATA
    410					;,,,,,,,,,,,,,,,,,,,,,,,,,,,,,,,,,,,,,,,,,,,,,,,,,,,,,,,,,,,,,,,,,,,,,,,,,,
    411
    412	001604	001644'	001704'	001724'	Modes		:  .word  Mode1,Mode2,Mode4,Mode8
	001612	001734'
    413	001614	002034'	002074'	002114'			   .word  SMode1,SMode2,SMode4,SMode8
	001622	002124'
    414	001624	002034'	002074'	002114'			   .word  SMode1,SMode2,SMode4,SMode8
	001632	002124'
    415	001634	001740'	002000'	002020'			   .word  WMode1,WMode2,WMode4,WMode8
	001642	002030'
    416
    417	001644	006350'	007150'	006430'	Mode1		:  .word  M11,MP11,M12,MP12,M13,MP13,M14,MP14,M15,MP15
	001652	007230'	006510'	007310'
	001660	006570'	007370'	006650'
	001666	007450'
    418	001670	006730'	007530'	007010'			   .word  M16,MP16,M17,MP17,M18,MP18
	001676	007610'	007070'	007670'
    419	001704	007750'	010410'	010060'	Mode2		:  .word  M21,MP21,M22,MP22,M23,MP23,M24,MP24
	001712	010520'	010170'	010630'
	001720	010300'	010740'
    420	001724	011050'	011210'	011130'	Mode4		:  .word  M41,MP41,M42,MP42
	001732	011270'
    421	001734	011350'	011430'		Mode8		:  .word  M81,MP81
    422
    423	001740	011510'	012310'	011570'	WMode1		:  .word  W11,WP11,W12,WP12,W13,WP13,W14,WP14,W15,WP15
	001746	012370'	011650'	012450'
	001754	011730'	012530'	012010'
	001762	012610'
    424	001764	012070'	012670'	012150'			   .word  W16,WP16,W17,WP17,W18,WP18
	001772	012750'	012230'	013030'
    425	002000	013110'	013550'	013220'	WMode2		:  .word  W21,WP21,W22,WP22,W23,WP23,W24,WP24
	002006	013660'	013330'	013770'
	002014	013440'	014100'
    426	002020	014210'	014430'	014320'	WMode4		:  .word  W41,WP41,W42,WP42
	002026	014540'
    427	002030	014650'	014730'		WMode8		:  .word  W81,WP81
    428
    429	002034	002170'	002770'	002250'	SMode1		:  .word  S11,SP11,S12,SP12,S13,SP13,S14,SP14,S15,SP15
	002042	003050'	002330'	003130'
	002050	002410'	003210'	002470'
	002056	003270'
    430	002060	002550'	003350'	002630'			   .word  S16,SP16,S17,SP17,S18,SP18
	002066	003430'	002710'	003510'
GMOUSE - genius mouse DRAW for 	MACRO V05.06R Thursday 05-Sep-19 08:34  Page 3-8
Common definitions for bios monitor

    431	002074	003570'	004370'	003730'	SMode2		:  .word  S21,SP21,S22,SP22,S23,SP23,S24,SP24
	002102	004530'	004070'	004670'
	002110	004230'	005030'
    432	002114	005170'	005470'	005330'	SMode4		:  .word  S41,SP41,S42,SP42
	002122	005630'
    433	002124	005770'	006160'		SMode8		:  .word  S81,SP81
    434
    435	002130	000004 	000006 	000004 	Wide		:  .word  4,6,4,4		; òøÎ <ÊÕü
	002136	000004
    436	002140	000004 	000010 	000010 			   .word  4,8.,8.,10.		; òøÎ þïâýóÞï
	002146	000012
    437	002150	000004 	000010 	000010 			   .word  4,8.,8.,10.		; òøÎ þïâýóÞï
	002156	000012
    438	002160	000004 	000006 	000006 			   .word  4,6,6,4		; òøÎ ãïÀ÷ð
	002166	000004
    439
    440		000002 				 .radix		2
    441						.include	"image"			; <ïÁÞüÔÊ çÖÞÀ÷Þ÷ð
GMOUSE - genius mouse DRAW for 	MACRO V05.06R Thursday 05-Sep-19 08:34  Page 4
Common definitions for bios monitor

      1					;	................, ................. ................ ................
      2					;	..ÜÜÜÜÜÜÜÜÜÜÜÜÜÜ, ÜÜÜÜ............. ÜÜÜÜÜÜÜÜÜÜÜÜÜÜ.. ............ÜÜÜÜ
      3					;	..ÜÜ..ÜÜ........, ..ÜÜ............. ........ÜÜ..ÜÜ.. ............ÜÜ..
      4					;	..ÜÜÜÜÜÜÜÜÜÜÜÜÜÜ, ÜÜÜÜ............. ÜÜÜÜÜÜÜÜÜÜÜÜÜÜ.. ............ÜÜÜÜ
      5					;	..ÜÜ............, ..ÜÜ............. ............ÜÜ.. ............ÜÜ..
      6					;	..ÜÜ........ÜÜÜÜ, ÜÜÜÜÜÜÜÜ......... ÜÜÜÜ........ÜÜ.. ........ÜÜÜÜÜÜÜÜ
      7					;	..ÜÜ........ÜÜ.., ÜÜ....ÜÜ......... ..ÜÜ........ÜÜ.. ........ÜÜ....ÜÜ
      8					;	..ÜÜ........ÜÜÜÜ, ÜÜÜÜÜÜÜÜ......... ÜÜÜÜ........ÜÜ.. ........ÜÜÜÜÜÜÜÜ
      9					;	..ÜÜ........ÜÜ.., ......ÜÜ......... ..ÜÜ........ÜÜ.. ........ÜÜ......
     10					;	..ÜÜÜÜÜÜÜÜÜÜÜÜ.., ......ÜÜ......... ..ÜÜÜÜÜÜÜÜÜÜÜÜ.. ........ÜÜ......
     11					;	............ÜÜÜÜ, ÜÜÜÜÜÜÜÜ......... ÜÜÜÜ............ ........ÜÜÜÜÜÜÜÜ
     12					;	................, ................. ................ ................
     13
     14	002170	000000 	000000 		S11:	0000000000000000,0000000000000000
     15	002174	177774 	000017 			1111111111111100,0000000000001111
     16	002200	000314 	000014 			0000000011001100,0000000000001100
     17	002204	177774 	000017 			1111111111111100,0000000000001111
     18	002210	000014 	000014 			0000000000001100,0000000000001100
     19	002214	170014 	000377 			1111000000001100,0000000011111111
     20	002220	030014 	000303 			0011000000001100,0000000011000011
     21	002224	170014 	000377 			1111000000001100,0000000011111111
     22	002230	030014 	000300 			0011000000001100,0000000011000000
     23	002234	037774 	000300 			0011111111111100,0000000011000000
     24	002240	170000 	000377 			1111000000000000,0000000011111111
     25	002244	000000 	000000 			0000000000000000,0000000000000000
     26
     27	002250	000000 	000000 		S12:	0000000000000000,0000000000000000
     28	002254	177770 	000037 			1111111111111000,0000000000011111
     29	002260	000630 	000030 			0000000110011000,0000000000011000
     30	002264	177770 	000037 			1111111111111000,0000000000011111
     31	002270	000030 	000030 			0000000000011000,0000000000011000
     32	002274	160030 	000777 			1110000000011000,0000000111111111
     33	002300	060030 	000606 			0110000000011000,0000000110000110
     34	002304	160030 	000777 			1110000000011000,0000000111111111
     35	002310	060030 	000600 			0110000000011000,0000000110000000
     36	002314	077770 	000600 			0111111111111000,0000000110000000
     37	002320	160000 	000777 			1110000000000000,0000000111111111
     38	002324	000000 	000000 			0000000000000000,0000000000000000
     39
     40	002330	000000 	000000 		S13:	0000000000000000,0000000000000000
     41	002334	177760 	000077 			1111111111110000,0000000000111111
     42	002340	001460 	000060 			0000001100110000,0000000000110000
     43	002344	177760 	000077 			1111111111110000,0000000000111111
     44	002350	000060 	000060 			0000000000110000,0000000000110000
     45	002354	140060 	001777 			1100000000110000,0000001111111111
     46	002360	140060 	001414 			1100000000110000,0000001100001100
     47	002364	140060 	001777 			1100000000110000,0000001111111111
     48	002370	140060 	001400 			1100000000110000,0000001100000000
     49	002374	177760 	001400 			1111111111110000,0000001100000000
     50	002400	140000 	001777 			1100000000000000,0000001111111111
     51	002404	000000 	000000 			0000000000000000,0000000000000000
     52
     53	002410	000000 	000000 		S14:	0000000000000000,0000000000000000
     54	002414	177740 	000177 			1111111111100000,0000000001111111
     55	002420	003140 	000140 			0000011001100000,0000000001100000
     56	002424	177740 	000177 			1111111111100000,0000000001111111
     57	002430	000140 	000140 			0000000001100000,0000000001100000
GMOUSE - genius mouse DRAW for 	MACRO V05.06R Thursday 05-Sep-19 08:34  Page 4-1
Common definitions for bios monitor

     58	002434	100140 	003777 			1000000001100000,0000011111111111
     59	002440	100140 	003031 			1000000001100000,0000011000011001
     60	002444	100140 	003777 			1000000001100000,0000011111111111
     61	002450	100140 	003001 			1000000001100000,0000011000000001
     62	002454	177740 	003001 			1111111111100000,0000011000000001
     63	002460	100000 	003777 			1000000000000000,0000011111111111
     64	002464	000000 	000000 			0000000000000000,0000000000000000
     65
     66	002470	000000 	000000 		S15:	0000000000000000,0000000000000000
     67	002474	177700 	000377 			1111111111000000,0000000011111111
     68	002500	006300 	000300 			0000110011000000,0000000011000000
     69	002504	177700 	000377 			1111111111000000,0000000011111111
     70	002510	000300 	000300 			0000000011000000,0000000011000000
     71	002514	000300 	007777 			0000000011000000,0000111111111111
     72	002520	000300 	006063 			0000000011000000,0000110000110011
     73	002524	000300 	007777 			0000000011000000,0000111111111111
     74	002530	000300 	006003 			0000000011000000,0000110000000011
     75	002534	177700 	006003 			1111111111000000,0000110000000011
     76	002540	000000 	007777 			0000000000000000,0000111111111111
     77	002544	000000 	000000 			0000000000000000,0000000000000000
     78
     79	002550	000000 	000000 		S16:	0000000000000000,0000000000000000
     80	002554	177600 	000777 			1111111110000000,0000000111111111
     81	002560	014600 	000600 			0001100110000000,0000000110000000
     82	002564	177600 	000777 			1111111110000000,0000000111111111
     83	002570	000600 	000600 			0000000110000000,0000000110000000
     84	002574	000600 	017776 			0000000110000000,0001111111111110
     85	002600	000600 	014146 			0000000110000000,0001100001100110
     86	002604	000600 	017776 			0000000110000000,0001111111111110
     87	002610	000600 	014006 			0000000110000000,0001100000000110
     88	002614	177600 	014007 			1111111110000000,0001100000000111
     89	002620	000000 	017776 			0000000000000000,0001111111111110
     90	002624	000000 	000000 			0000000000000000,0000000000000000
     91
     92	002630	000000 	000000 		S17:	0000000000000000,0000000000000000
     93	002634	177400 	001777 			1111111100000000,0000001111111111
     94	002640	031400 	001400 			0011001100000000,0000001100000000
     95	002644	177400 	001777 			1111111100000000,0000001111111111
     96	002650	001400 	001400 			0000001100000000,0000001100000000
     97	002654	001400 	037774 			0000001100000000,0011111111111100
     98	002660	001400 	030314 			0000001100000000,0011000011001100
     99	002664	001400 	037774 			0000001100000000,0011111111111100
    100	002670	001400 	030014 			0000001100000000,0011000000001100
    101	002674	177400 	030017 			1111111100000000,0011000000001111
    102	002700	000000 	037774 			0000000000000000,0011111111111100
    103	002704	000000 	000000 			0000000000000000,0000000000000000
    104
    105	002710	000000 	000000 		S18:	0000000000000000,0000000000000000
    106	002714	177000 	003777 			1111111000000000,0000011111111111
    107	002720	063000 	003000 			0110011000000000,0000011000000000
    108	002724	177000 	003777 			1111111000000000,0000011111111111
    109	002730	003000 	003000 			0000011000000000,0000011000000000
    110	002734	003000 	077770 			0000011000000000,0111111111111000
    111	002740	003000 	060630 			0000011000000000,0110000110011000
    112	002744	003000 	077770 			0000011000000000,0111111111111000
    113	002750	003000 	060030 			0000011000000000,0110000000011000
    114	002754	177000 	060037 			1111111000000000,0110000000011111
GMOUSE - genius mouse DRAW for 	MACRO V05.06R Thursday 05-Sep-19 08:34  Page 4-2
Common definitions for bios monitor

    115	002760	000000 	077770 			0000000000000000,0111111111111000
    116	002764	000000 	000000 			0000000000000000,0000000000000000
    117
    118
    119	002770	177777 	000037 		SP11:	1111111111111111,0000000000011111
    120	002774	177777 	000037 			1111111111111111,0000000000011111
    121	003000	177777 	000037 			1111111111111111,0000000000011111
    122	003004	177777 	000037 			1111111111111111,0000000000011111
    123	003010	177777 	000777 			1111111111111111,0000000111111111
    124	003014	177777 	000777 			1111111111111111,0000000111111111
    125	003020	177777 	000777 			1111111111111111,0000000111111111
    126	003024	177777 	000777 			1111111111111111,0000000111111111
    127	003030	177777 	000777 			1111111111111111,0000000111111111
    128	003034	177777 	000777 			1111111111111111,0000000111111111
    129	003040	177777 	000777 			1111111111111111,0000000111111111
    130	003044	176000 	000777 			1111110000000000,0000000111111111
    131
    132	003050	177776 	000077 		SP12:	1111111111111110,0000000000111111
    133	003054	177776 	000077 			1111111111111110,0000000000111111
    134	003060	177776 	000077 			1111111111111110,0000000000111111
    135	003064	177776 	000077 			1111111111111110,0000000000111111
    136	003070	177776 	001777 			1111111111111110,0000001111111111
    137	003074	177776 	001777 			1111111111111110,0000001111111111
    138	003100	177776 	001777 			1111111111111110,0000001111111111
    139	003104	177776 	001777 			1111111111111110,0000001111111111
    140	003110	177776 	001777 			1111111111111110,0000001111111111
    141	003114	177776 	001777 			1111111111111110,0000001111111111
    142	003120	177776 	001777 			1111111111111110,0000001111111111
    143	003124	170000 	001777 			1111000000000000,0000001111111111
    144
    145	003130	177774 	000177 		SP13:	1111111111111100,0000000001111111
    146	003134	177774 	000177 			1111111111111100,0000000001111111
    147	003140	177774 	000177 			1111111111111100,0000000001111111
    148	003144	177774 	000177 			1111111111111100,0000000001111111
    149	003150	177774 	003777 			1111111111111100,0000011111111111
    150	003154	177774 	003777 			1111111111111100,0000011111111111
    151	003160	177774 	003777 			1111111111111100,0000011111111111
    152	003164	177774 	003777 			1111111111111100,0000011111111111
    153	003170	177774 	003777 			1111111111111100,0000011111111111
    154	003174	177774 	003777 			1111111111111100,0000011111111111
    155	003200	177774 	003777 			1111111111111100,0000011111111111
    156	003204	160000 	003777 			1110000000000000,0000011111111111
    157
    158	003210	177770 	000377 		SP14:	1111111111111000,0000000011111111
    159	003214	177770 	000377 			1111111111111000,0000000011111111
    160	003220	177770 	000377 			1111111111111000,0000000011111111
    161	003224	177770 	000377 			1111111111111000,0000000011111111
    162	003230	177770 	007777 			1111111111111000,0000111111111111
    163	003234	177770 	007777 			1111111111111000,0000111111111111
    164	003240	177770 	007777 			1111111111111000,0000111111111111
    165	003244	177770 	007777 			1111111111111000,0000111111111111
    166	003250	177770 	007777 			1111111111111000,0000111111111111
    167	003254	177770 	007777 			1111111111111000,0000111111111111
    168	003260	177770 	007777 			1111111111111000,0000111111111111
    169	003264	140000 	007777 			1100000000000000,0000111111111111
    170
    171	003270	177760 	000777 		SP15:	1111111111110000,0000000111111111
GMOUSE - genius mouse DRAW for 	MACRO V05.06R Thursday 05-Sep-19 08:34  Page 4-3
Common definitions for bios monitor

    172	003274	177760 	000777 			1111111111110000,0000000111111111
    173	003300	177760 	000777 			1111111111110000,0000000111111111
    174	003304	177760 	000777 			1111111111110000,0000000111111111
    175	003310	177760 	017777 			1111111111110000,0001111111111111
    176	003314	177760 	017777 			1111111111110000,0001111111111111
    177	003320	177760 	017777 			1111111111110000,0001111111111111
    178	003324	177760 	017777 			1111111111110000,0001111111111111
    179	003330	177760 	017777 			1111111111110000,0001111111111111
    180	003334	177760 	017777 			1111111111110000,0001111111111111
    181	003340	177760 	017777 			1111111111110000,0001111111111111
    182	003344	100000 	017777 			1000000000000000,0001111111111111
    183
    184	003350	177740 	001777 		SP16:	1111111111100000,0000001111111111
    185	003354	177740 	001777 			1111111111100000,0000001111111111
    186	003360	177740 	001777 			1111111111100000,0000001111111111
    187	003364	177740 	001777 			1111111111100000,0000001111111111
    188	003370	177740 	037777 			1111111111100000,0011111111111111
    189	003374	177740 	037777 			1111111111100000,0011111111111111
    190	003400	177740 	037777 			1111111111100000,0011111111111111
    191	003404	177740 	037777 			1111111111100000,0011111111111111
    192	003410	177740 	037777 			1111111111100000,0011111111111111
    193	003414	177740 	037777 			1111111111100000,0011111111111111
    194	003420	177740 	037777 			1111111111100000,0011111111111111
    195	003424	000000 	037777 			0000000000000000,0011111111111111
    196
    197	003430	177700 	003777 		SP17:	1111111111000000,0000011111111111
    198	003434	177700 	003777 			1111111111000000,0000011111111111
    199	003440	177700 	003777 			1111111111000000,0000011111111111
    200	003444	177700 	003777 			1111111111000000,0000011111111111
    201	003450	177700 	077777 			1111111111000000,0111111111111111
    202	003454	177700 	077777 			1111111111000000,0111111111111111
    203	003460	177700 	077777 			1111111111000000,0111111111111111
    204	003464	177700 	077777 			1111111111000000,0111111111111111
    205	003470	177700 	077777 			1111111111000000,0111111111111111
    206	003474	177700 	077777 			1111111111000000,0111111111111111
    207	003500	177700 	077777 			1111111111000000,0111111111111111
    208	003504	000000 	077776 			0000000000000000,0111111111111110
    209
    210	003510	177600 	007777 		SP18:	1111111110000000,0000111111111111
    211	003514	177600 	007777 			1111111110000000,0000111111111111
    212	003520	177600 	007777 			1111111110000000,0000111111111111
    213	003524	177600 	007777 			1111111110000000,0000111111111111
    214	003530	177600 	177777 			1111111110000000,1111111111111111
    215	003534	177600 	177777 			1111111110000000,1111111111111111
    216	003540	177600 	177777 			1111111110000000,1111111111111111
    217	003544	177600 	177777 			1111111110000000,1111111111111111
    218	003550	177600 	177777 			1111111110000000,1111111111111111
    219	003554	177600 	177777 			1111111110000000,1111111111111111
    220	003560	177600 	177777 			1111111110000000,1111111111111111
    221	003564	000000 	177774 			0000000000000000,1111111111111100
    222
    223
    224	003570	000000 	000000 	000000 	S21:	0000000000000000,0000000000000000,0000000000000000,0000000000000000
	003576	000000
    225	003600	177760 	177777 	000377 		1111111111110000,1111111111111111,0000000011111111,0000000000000000
	003606	000000
    226	003610	170360 	052525 	000365 		1111000011110000,0101010101010101,0000000011110101,0000000000000000
GMOUSE - genius mouse DRAW for 	MACRO V05.06R Thursday 05-Sep-19 08:34  Page 4-4
Common definitions for bios monitor

	003616	000000
    227	003620	177760 	177777 	000377 		1111111111110000,1111111111111111,0000000011111111,0000000000000000
	003626	000000
    228	003630	000360 	000000 	000360 		0000000011110000,0000000000000000,0000000011110000,0000000000000000
	003636	000000
    229	003640	000360 	177400 	177777 		0000000011110000,1111111100000000,1111111111111111,0000000000000000
	003646	000000
    230	003650	000360 	007400 	172537 		0000000011110000,0000111100000000,1111010101011111,0000000000000000
	003656	000000
    231	003660	000360 	177400 	177777 		0000000011110000,1111111100000000,1111111111111111,0000000000000000
	003666	000000
    232	003670	000360 	127400 	175252 		0000000011110000,1010111100000000,1111101010101010,0000000000000000
	003676	000000
    233	003700	177760 	127777 	175252 		1111111111110000,1010111111111111,1111101010101010,0000000000000000
	003706	000000
    234	003710	000000 	177400 	177777 		0000000000000000,1111111100000000,1111111111111111,0000000000000000
	003716	000000
    235	003720	000000 	000000 	000000 		0000000000000000,0000000000000000,0000000000000000,0000000000000000
	003726	000000
    236
    237	003730	000000 	000000 	000000 	S22:	0000000000000000,0000000000000000,0000000000000000,0000000000000000
	003736	000000
    238	003740	177700 	177777 	001777 		1111111111000000,1111111111111111,0000001111111111,0000000000000000
	003746	000000
    239	003750	141700 	052527 	001725 		1100001111000000,0101010101010111,0000001111010101,0000000000000000
	003756	000000
    240	003760	177700 	177777 	001777 		1111111111000000,1111111111111111,0000001111111111,0000000000000000
	003766	000000
    241	003770	001700 	000000 	001700 		0000001111000000,0000000000000000,0000001111000000,0000000000000000
	003776	000000
    242	004000	001700 	176000 	177777 		0000001111000000,1111110000000000,1111111111111111,0000000000000011
	004006	000003
    243	004010	001700 	036000 	152574 		0000001111000000,0011110000000000,1101010101111100,0000000000000011
	004016	000003
    244	004020	001700 	176000 	177777 		0000001111000000,1111110000000000,1111111111111111,0000000000000011
	004026	000003
    245	004030	001700 	136000 	165252 		0000001111000000,1011110000000000,1110101010101010,0000000000000011
	004036	000003
    246	004040	177700 	137777 	165252 		1111111111000000,1011111111111111,1110101010101010,0000000000000011
	004046	000003
    247	004050	000000 	176000 	177777 		0000000000000000,1111110000000000,1111111111111111,0000000000000011
	004056	000003
    248	004060	000000 	000000 	000000 		0000000000000000,0000000000000000,0000000000000000,0000000000000000
	004066	000000
    249
    250	004070	000000 	000000 	000000 	S23:	0000000000000000,0000000000000000,0000000000000000,0000000000000000
	004076	000000
    251	004100	177400 	177777 	007777 		1111111100000000,1111111111111111,0000111111111111,0000000000000000
	004106	000000
    252	004110	007400 	052537 	007525 		0000111100000000,0101010101011111,0000111101010101,0000000000000000
	004116	000000
    253	004120	177400 	177777 	007777 		1111111100000000,1111111111111111,0000111111111111,0000000000000000
	004126	000000
    254	004130	007400 	000000 	007400 		0000111100000000,0000000000000000,0000111100000000,0000000000000000
	004136	000000
    255	004140	007400 	170000 	177777 		0000111100000000,1111000000000000,1111111111111111,0000000000001111
	004146	000017
GMOUSE - genius mouse DRAW for 	MACRO V05.06R Thursday 05-Sep-19 08:34  Page 4-5
Common definitions for bios monitor

    256	004150	007400 	170000 	052760 		0000111100000000,1111000000000000,0101010111110000,0000000000001111
	004156	000017
    257	004160	007400 	170000 	177777 		0000111100000000,1111000000000000,1111111111111111,0000000000001111
	004166	000017
    258	004170	007400 	170000 	125252 		0000111100000000,1111000000000000,1010101010101010,0000000000001111
	004176	000017
    259	004200	177400 	177777 	125252 		1111111100000000,1111111111111111,1010101010101010,0000000000001111
	004206	000017
    260	004210	000000 	170000 	177777 		0000000000000000,1111000000000000,1111111111111111,0000000000001111
	004216	000017
    261	004220	000000 	000000 	000000 		0000000000000000,0000000000000000,0000000000000000,0000000000000000
	004226	000000
    262
    263	004230	000000 	000000 	000000 	S24:	0000000000000000,0000000000000000,0000000000000000,0000000000000000
	004236	000000
    264	004240	176000 	177777 	037777 		1111110000000000,1111111111111111,0011111111111111,0000000000000000
	004246	000000
    265	004250	036000 	052574 	036525 		0011110000000000,0101010101111100,0011110101010101,0000000000000000
	004256	000000
    266	004260	176000 	177777 	037777 		1111110000000000,1111111111111111,0011111111111111,0000000000000000
	004266	000000
    267	004270	036000 	000000 	036000 		0011110000000000,0000000000000000,0011110000000000,0000000000000000
	004276	000000
    268	004300	036000 	140000 	177777 		0011110000000000,1100000000000000,1111111111111111,0000000000111111
	004306	000077
    269	004310	036000 	140000 	053703 		0011110000000000,1100000000000000,0101011111000011,0000000000111101
	004316	000075
    270	004320	036000 	140000 	177777 		0011110000000000,1100000000000000,1111111111111111,0000000000111111
	004326	000077
    271	004330	036000 	140000 	125253 		0011110000000000,1100000000000000,1010101010101011,0000000000111110
	004336	000076
    272	004340	176000 	177777 	125253 		1111110000000000,1111111111111111,1010101010101011,0000000000111110
	004346	000076
    273	004350	000000 	140000 	177777 		0000000000000000,1100000000000000,1111111111111111,0000000000111111
	004356	000077
    274	004360	000000 	000000 	000000 		0000000000000000,0000000000000000,0000000000000000,0000000000000000
	004366	000000
    275
    276
    277	004370	177777 	177777 	001777 	SP21:	1111111111111111,1111111111111111,0000001111111111,0000000000000000
	004376	000000
    278	004400	177777 	177777 	001777 		1111111111111111,1111111111111111,0000001111111111,0000000000000000
	004406	000000
    279	004410	177777 	177777 	001777 		1111111111111111,1111111111111111,0000001111111111,0000000000000000
	004416	000000
    280	004420	177777 	177777 	001777 		1111111111111111,1111111111111111,0000001111111111,0000000000000000
	004426	000000
    281	004430	177777 	177777 	177777 		1111111111111111,1111111111111111,1111111111111111,0000000000000011
	004436	000003
    282	004440	177777 	177777 	177777 		1111111111111111,1111111111111111,1111111111111111,0000000000000011
	004446	000003
    283	004450	177777 	177777 	177777 		1111111111111111,1111111111111111,1111111111111111,0000000000000011
	004456	000003
    284	004460	177777 	177777 	177777 		1111111111111111,1111111111111111,1111111111111111,0000000000000011
	004466	000003
    285	004470	177777 	177777 	177777 		1111111111111111,1111111111111111,1111111111111111,0000000000000011
	004476	000003
GMOUSE - genius mouse DRAW for 	MACRO V05.06R Thursday 05-Sep-19 08:34  Page 4-6
Common definitions for bios monitor

    286	004500	177777 	177777 	177777 		1111111111111111,1111111111111111,1111111111111111,0000000000000011
	004506	000003
    287	004510	177777 	177777 	177777 		1111111111111111,1111111111111111,1111111111111111,0000000000000011
	004516	000003
    288	004520	000000 	177760 	177777 		0000000000000000,1111111111110000,1111111111111111,0000000000000011
	004526	000003
    289
    290	004530	177774 	177777 	007777 	SP22:	1111111111111100,1111111111111111,0000111111111111,0000000000000000
	004536	000000
    291	004540	177774 	177777 	007777 		1111111111111100,1111111111111111,0000111111111111,0000000000000000
	004546	000000
    292	004550	177774 	177777 	007777 		1111111111111100,1111111111111111,0000111111111111,0000000000000000
	004556	000000
    293	004560	177774 	177777 	007777 		1111111111111100,1111111111111111,0000111111111111,0000000000000000
	004566	000000
    294	004570	177774 	177777 	177777 		1111111111111100,1111111111111111,1111111111111111,0000000000001111
	004576	000017
    295	004600	177774 	177777 	177777 		1111111111111100,1111111111111111,1111111111111111,0000000000001111
	004606	000017
    296	004610	177774 	177777 	177777 		1111111111111100,1111111111111111,1111111111111111,0000000000001111
	004616	000017
    297	004620	177774 	177777 	177777 		1111111111111100,1111111111111111,1111111111111111,0000000000001111
	004626	000017
    298	004630	177774 	177777 	177777 		1111111111111100,1111111111111111,1111111111111111,0000000000001111
	004636	000017
    299	004640	177774 	177777 	177777 		1111111111111100,1111111111111111,1111111111111111,0000000000001111
	004646	000017
    300	004650	177774 	177777 	177777 		1111111111111100,1111111111111111,1111111111111111,0000000000001111
	004656	000017
    301	004660	000000 	177700 	177777 		0000000000000000,1111111111000000,1111111111111111,0000000000001111
	004666	000017
    302
    303	004670	177760 	177777 	037777 	SP23:	1111111111110000,1111111111111111,0011111111111111,0000000000000000
	004676	000000
    304	004700	177760 	177777 	037777 		1111111111110000,1111111111111111,0011111111111111,0000000000000000
	004706	000000
    305	004710	177760 	177777 	037777 		1111111111110000,1111111111111111,0011111111111111,0000000000000000
	004716	000000
    306	004720	177760 	177777 	037777 		1111111111110000,1111111111111111,0011111111111111,0000000000000000
	004726	000000
    307	004730	177760 	177777 	177777 		1111111111110000,1111111111111111,1111111111111111,0000000000111111
	004736	000077
    308	004740	177760 	177777 	177777 		1111111111110000,1111111111111111,1111111111111111,0000000000111111
	004746	000077
    309	004750	177760 	177777 	177777 		1111111111110000,1111111111111111,1111111111111111,0000000000111111
	004756	000077
    310	004760	177760 	177777 	177777 		1111111111110000,1111111111111111,1111111111111111,0000000000111111
	004766	000077
    311	004770	177760 	177777 	177777 		1111111111110000,1111111111111111,1111111111111111,0000000000111111
	004776	000077
    312	005000	177760 	177777 	177777 		1111111111110000,1111111111111111,1111111111111111,0000000000111111
	005006	000077
    313	005010	177760 	177777 	177777 		1111111111110000,1111111111111111,1111111111111111,0000000000111111
	005016	000077
    314	005020	000000 	177400 	177777 		0000000000000000,1111111100000000,1111111111111111,0000000000111111
	005026	000077
    315
GMOUSE - genius mouse DRAW for 	MACRO V05.06R Thursday 05-Sep-19 08:34  Page 4-7
Common definitions for bios monitor

    316	005030	177700 	177777 	177777 	SP24:	1111111111000000,1111111111111111,1111111111111111,0000000000000000
	005036	000000
    317	005040	177700 	177777 	177777 		1111111111000000,1111111111111111,1111111111111111,0000000000000000
	005046	000000
    318	005050	177700 	177777 	177777 		1111111111000000,1111111111111111,1111111111111111,0000000000000000
	005056	000000
    319	005060	177700 	177777 	177777 		1111111111000000,1111111111111111,1111111111111111,0000000000000000
	005066	000000
    320	005070	177700 	177777 	177777 		1111111111000000,1111111111111111,1111111111111111,0000000011111111
	005076	000377
    321	005100	177700 	177777 	177777 		1111111111000000,1111111111111111,1111111111111111,0000000011111111
	005106	000377
    322	005110	177700 	177777 	177777 		1111111111000000,1111111111111111,1111111111111111,0000000011111111
	005116	000377
    323	005120	177700 	177777 	177777 		1111111111000000,1111111111111111,1111111111111111,0000000011111111
	005126	000377
    324	005130	177700 	177777 	177777 		1111111111000000,1111111111111111,1111111111111111,0000000011111111
	005136	000377
    325	005140	177700 	177777 	177777 		1111111111000000,1111111111111111,1111111111111111,0000000011111111
	005146	000377
    326	005150	177700 	177777 	177777 		1111111111000000,1111111111111111,1111111111111111,0000000011111111
	005156	000377
    327	005160	000000 	176000 	177777 		0000000000000000,1111110000000000,1111111111111111,0000000011111111
	005166	000377
    328
    329	005170	000000 	000000 	000000 	S41:	0000000000000000,0000000000000000,0000000000000000,0000000000000000
	005176	000000
    330	005200	177760 	177777 	000377 		1111111111110000,1111111111111111,0000000011111111,0000000000000000
	005206	000000
    331	005210	170360 	000000 	000360 		1111000011110000,0000000000000000,0000000011110000,0000000000000000
	005216	000000
    332	005220	177760 	177777 	000377 		1111111111110000,1111111111111111,0000000011111111,0000000000000000
	005226	000000
    333	005230	000360 	000000 	000360 		0000000011110000,0000000000000000,0000000011110000,0000000000000000
	005236	000000
    334	005240	000360 	177400 	177777 		0000000011110000,1111111100000000,1111111111111111,0000000000000000
	005246	000000
    335	005250	000360 	007400 	170017 		0000000011110000,0000111100000000,1111000000001111,0000000000000000
	005256	000000
    336	005260	000360 	177400 	177777 		0000000011110000,1111111100000000,1111111111111111,0000000000000000
	005266	000000
    337	005270	000360 	007400 	170000 		0000000011110000,0000111100000000,1111000000000000,0000000000000000
	005276	000000
    338	005300	177760 	007777 	170000 		1111111111110000,0000111111111111,1111000000000000,0000000000000000
	005306	000000
    339	005310	000000 	177400 	177777 		0000000000000000,1111111100000000,1111111111111111,0000000000000000
	005316	000000
    340	005320	000000 	000000 	000000 		0000000000000000,0000000000000000,0000000000000000,0000000000000000
	005326	000000
    341
    342	005330	000000 	000000 	000000 	S42:	0000000000000000,0000000000000000,0000000000000000,0000000000000000
	005336	000000
    343	005340	177400 	177777 	007777 		1111111100000000,1111111111111111,0000111111111111,0000000000000000
	005346	000000
    344	005350	007400 	000017 	007400 		0000111100000000,0000000000001111,0000111100000000,0000000000000000
	005356	000000
    345	005360	177400 	177777 	007777 		1111111100000000,1111111111111111,0000111111111111,0000000000000000
GMOUSE - genius mouse DRAW for 	MACRO V05.06R Thursday 05-Sep-19 08:34  Page 4-8
Common definitions for bios monitor

	005366	000000
    346	005370	007400 	000000 	007400 		0000111100000000,0000000000000000,0000111100000000,0000000000000000
	005376	000000
    347	005400	007400 	170000 	177777 		0000111100000000,1111000000000000,1111111111111111,0000000000001111
	005406	000017
    348	005410	007400 	170000 	000360 		0000111100000000,1111000000000000,0000000011110000,0000000000001111
	005416	000017
    349	005420	007400 	170000 	177777 		0000111100000000,1111000000000000,1111111111111111,0000000000001111
	005426	000017
    350	005430	007400 	170000 	000000 		0000111100000000,1111000000000000,0000000000000000,0000000000001111
	005436	000017
    351	005440	177400 	177777 	000000 		1111111100000000,1111111111111111,0000000000000000,0000000000001111
	005446	000017
    352	005450	000000 	170000 	177777 		0000000000000000,1111000000000000,1111111111111111,0000000000001111
	005456	000017
    353	005460	000000 	000000 	000000 		0000000000000000,0000000000000000,0000000000000000,0000000000000000
	005466	000000
    354
    355
    356	005470	177777 	177777 	007777 	SP41:	1111111111111111,1111111111111111,0000111111111111,0000000000000000
	005476	000000
    357	005500	177777 	177777 	007777 		1111111111111111,1111111111111111,0000111111111111,0000000000000000
	005506	000000
    358	005510	177777 	177777 	007777 		1111111111111111,1111111111111111,0000111111111111,0000000000000000
	005516	000000
    359	005520	177777 	177777 	007777 		1111111111111111,1111111111111111,0000111111111111,0000000000000000
	005526	000000
    360	005530	177777 	177777 	177777 		1111111111111111,1111111111111111,1111111111111111,0000000000001111
	005536	000017
    361	005540	177777 	177777 	177777 		1111111111111111,1111111111111111,1111111111111111,0000000000001111
	005546	000017
    362	005550	177777 	177777 	177777 		1111111111111111,1111111111111111,1111111111111111,0000000000001111
	005556	000017
    363	005560	177777 	177777 	177777 		1111111111111111,1111111111111111,1111111111111111,0000000000001111
	005566	000017
    364	005570	177777 	177777 	177777 		1111111111111111,1111111111111111,1111111111111111,0000000000001111
	005576	000017
    365	005600	177777 	177777 	177777 		1111111111111111,1111111111111111,1111111111111111,0000000000001111
	005606	000017
    366	005610	177777 	177777 	177777 		1111111111111111,1111111111111111,1111111111111111,0000000000001111
	005616	000017
    367	005620	000000 	177760 	177777 		0000000000000000,1111111111110000,1111111111111111,0000000000001111
	005626	000017
    368
    369	005630	177760 	177777 	177777 	SP42:	1111111111110000,1111111111111111,1111111111111111,0000000000000000
	005636	000000
    370	005640	177760 	177777 	177777 		1111111111110000,1111111111111111,1111111111111111,0000000000000000
	005646	000000
    371	005650	177760 	177777 	177777 		1111111111110000,1111111111111111,1111111111111111,0000000000000000
	005656	000000
    372	005660	177760 	177777 	177777 		1111111111110000,1111111111111111,1111111111111111,0000000000000000
	005666	000000
    373	005670	177760 	177777 	177777 		1111111111110000,1111111111111111,1111111111111111,0000000011111111
	005676	000377
    374	005700	177760 	177777 	177777 		1111111111110000,1111111111111111,1111111111111111,0000000011111111
	005706	000377
    375	005710	177760 	177777 	177777 		1111111111110000,1111111111111111,1111111111111111,0000000011111111
GMOUSE - genius mouse DRAW for 	MACRO V05.06R Thursday 05-Sep-19 08:34  Page 4-9
Common definitions for bios monitor

	005716	000377
    376	005720	177760 	177777 	177777 		1111111111110000,1111111111111111,1111111111111111,0000000011111111
	005726	000377
    377	005730	177760 	177777 	177777 		1111111111110000,1111111111111111,1111111111111111,0000000011111111
	005736	000377
    378	005740	177760 	177777 	177777 		1111111111110000,1111111111111111,1111111111111111,0000000011111111
	005746	000377
    379	005750	177760 	177777 	177777 		1111111111110000,1111111111111111,1111111111111111,0000000011111111
	005756	000377
    380	005760	000000 	177400 	177777 		0000000000000000,1111111100000000,1111111111111111,0000000011111111
	005766	000377
    381
    382		000010 				.radix	8
    383
    384	005770	   000 	   000 	   000 	S81:	.byte	000,000,000,000,000,000,000,000,000,000
	005773	   000 	   000 	   000
	005776	   000 	   000 	   000
	006001	   000
    385	006002	   000 	   377 	   377 		.byte	000,377,377,377,377,377,000,000,000,000
	006005	   377 	   377 	   377
	006010	   000 	   000 	   000
	006013	   000
    386	006014	   000 	   377 	   000 		.byte	000,377,000,377,001,377,000,000,000,000
	006017	   377 	   001 	   377
	006022	   000 	   000 	   000
	006025	   000
    387	006026	   000 	   377 	   377 		.byte	000,377,377,377,377,377,000,000,000,000
	006031	   377 	   377 	   377
	006034	   000 	   000 	   000
	006037	   000
    388	006040	   000 	   377 	   001 		.byte	000,377,001,001,001,377,000,000,000,000
	006043	   001 	   001 	   377
	006046	   000 	   000 	   000
	006051	   000
    389	006052	   000 	   377 	   001 		.byte	000,377,001,001,001,377,000,000,000,000
	006055	   001 	   001 	   377
	006060	   000 	   000 	   000
	006063	   000
    390	006064	   000 	   377 	   001 		.byte	000,377,001,001,377,377,377,377,000,000
	006067	   001 	   377 	   377
	006072	   377 	   377 	   000
	006075	   000
    391	006076	   000 	   377 	   001 		.byte	000,377,001,001,377,000,377,377,000,000
	006101	   001 	   377 	   000
	006104	   377 	   377 	   000
	006107	   000
    392	006110	   000 	   377 	   001 		.byte	000,377,001,001,377,001,001,377,000,000
	006113	   001 	   377 	   001
	006116	   001 	   377 	   000
	006121	   000
    393	006122	   000 	   377 	   377 		.byte	000,377,377,377,377,001,001,377,000,000
	006125	   377 	   377 	   001
	006130	   001 	   377 	   000
	006133	   000
    394	006134	   000 	   000 	   000 		.byte	000,000,000,001,377,377,377,377,000,000
	006137	   001 	   377 	   377
	006142	   377 	   377 	   000
GMOUSE - genius mouse DRAW for 	MACRO V05.06R Thursday 05-Sep-19 08:34  Page 4-10
Common definitions for bios monitor

	006145	   000
    395	006146	   000 	   000 	   000 		.byte	000,000,000,000,000,000,000,000,000,000
	006151	   000 	   000 	   000
	006154	   000 	   000 	   000
	006157	   000
    396
    397	006160	   377 	   377 	   377 	SP81:	.byte	377,377,377,377,377,377,377,377,000,000
	006163	   377 	   377 	   377
	006166	   377 	   377 	   000
	006171	   000
    398	006172	   377 	   377 	   377 		.byte	377,377,377,377,377,377,377,377,000,000
	006175	   377 	   377 	   377
	006200	   377 	   377 	   000
	006203	   000
    399	006204	   377 	   377 	   377 		.byte	377,377,377,377,377,377,377,377,000,000
	006207	   377 	   377 	   377
	006212	   377 	   377 	   000
	006215	   000
    400	006216	   377 	   377 	   377 		.byte	377,377,377,377,377,377,337,377,000,000
	006221	   377 	   377 	   377
	006224	   337 	   377 	   000
	006227	   000
    401	006230	   377 	   377 	   377 		.byte	377,377,377,377,377,377,377,377,000,000
	006233	   377 	   377 	   377
	006236	   377 	   377 	   000
	006241	   000
    402	006242	   377 	   377 	   377 		.byte	377,377,377,377,377,377,377,377,377,000
	006245	   377 	   377 	   377
	006250	   377 	   377 	   377
	006253	   000
    403	006254	   377 	   377 	   377 		.byte	377,377,377,377,377,377,377,377,377,000
	006257	   377 	   377 	   377
	006262	   377 	   377 	   377
	006265	   000
    404	006266	   377 	   377 	   377 		.byte	377,377,377,377,377,377,377,377,377,000
	006271	   377 	   377 	   377
	006274	   377 	   377 	   377
	006277	   000
    405	006300	   377 	   377 	   377 		.byte	377,377,377,377,377,377,377,377,377,000
	006303	   377 	   377 	   377
	006306	   377 	   377 	   377
	006311	   000
    406	006312	   377 	   377 	   377 		.byte	377,377,377,377,377,377,377,377,377,000
	006315	   377 	   377 	   377
	006320	   377 	   377 	   377
	006323	   000
    407	006324	   377 	   377 	   377 		.byte	377,377,377,377,377,377,377,377,377,000
	006327	   377 	   377 	   377
	006332	   377 	   377 	   377
	006335	   000
    408	006336	   000 	   000 	   000 		.byte	000,000,000,377,377,377,377,377,377,000
	006341	   377 	   377 	   377
	006344	   377 	   377 	   377
	006347	   000
    409
    410		000002 				.radix	2
    411
GMOUSE - genius mouse DRAW for 	MACRO V05.06R Thursday 05-Sep-19 08:34  Page 4-11
Common definitions for bios monitor

    412	006350	000000 	000000 		M11:	.word	0000000000000000,0000000000000000	; 1
    413	006354	000002 	000000 			.word	0000000000000010,0000000000000000
    414	006360	000016 	000000 			.word	0000000000001110,0000000000000000
    415	006364	000076 	000000 			.word	0000000000111110,0000000000000000
    416	006370	000376 	000000 			.word	0000000011111110,0000000000000000
    417	006374	001776 	000000 			.word	0000001111111110,0000000000000000
    418	006400	007776 	000000 			.word	0000111111111110,0000000000000000
    419	006404	000776 	000000 			.word	0000000111111110,0000000000000000
    420	006410	001716 	000000 			.word	0000001111001110,0000000000000000
    421	006414	001606 	000000 			.word	0000001110000110,0000000000000000
    422	006420	003400 	000000 			.word	0000011100000000,0000000000000000
    423	006424	000000 	000000 			.word	0000000000000000,0000000000000000
    424
    425	006430	000000 	000000 		M12:	.word	0000000000000000,0000000000000000	; 2
    426	006434	000004 	000000 			.word	0000000000000100,0000000000000000
    427	006440	000034 	000000 			.word	0000000000011100,0000000000000000
    428	006444	000174 	000000 			.word	0000000001111100,0000000000000000
    429	006450	000774 	000000 			.word	0000000111111100,0000000000000000
    430	006454	003774 	000000 			.word	0000011111111100,0000000000000000
    431	006460	017774 	000000 			.word	0001111111111100,0000000000000000
    432	006464	001774 	000000 			.word	0000001111111100,0000000000000000
    433	006470	003634 	000000 			.word	0000011110011100,0000000000000000
    434	006474	003414 	000000 			.word	0000011100001100,0000000000000000
    435	006500	007000 	000000 			.word	0000111000000000,0000000000000000
    436	006504	000000 	000000 			.word	0000000000000000,0000000000000000
    437
    438	006510	000000 	000000 		M13:	.word	0000000000000000,0000000000000000	; 3
    439	006514	000010 	000000 			.word	0000000000001000,0000000000000000
    440	006520	000070 	000000 			.word	0000000000111000,0000000000000000
    441	006524	000370 	000000 			.word	0000000011111000,0000000000000000
    442	006530	001770 	000000 			.word	0000001111111000,0000000000000000
    443	006534	007770 	000000 			.word	0000111111111000,0000000000000000
    444	006540	037770 	000000 			.word	0011111111111000,0000000000000000
    445	006544	003770 	000000 			.word	0000011111111000,0000000000000000
    446	006550	007470 	000000 			.word	0000111100111000,0000000000000000
    447	006554	007030 	000000 			.word	0000111000011000,0000000000000000
    448	006560	016000 	000000 			.word	0001110000000000,0000000000000000
    449	006564	000000 	000000 			.word	0000000000000000,0000000000000000
    450
    451	006570	000000 	000000 		M14:	.word	0000000000000000,0000000000000000	; 4
    452	006574	000020 	000000 			.word	0000000000010000,0000000000000000
    453	006600	000160 	000000 			.word	0000000001110000,0000000000000000
    454	006604	000760 	000000 			.word	0000000111110000,0000000000000000
    455	006610	003760 	000000 			.word	0000011111110000,0000000000000000
    456	006614	017760 	000000 			.word	0001111111110000,0000000000000000
    457	006620	077760 	000000 			.word	0111111111110000,0000000000000000
    458	006624	007760 	000000 			.word	0000111111110000,0000000000000000
    459	006630	017160 	000000 			.word	0001111001110000,0000000000000000
    460	006634	016060 	000000 			.word	0001110000110000,0000000000000000
    461	006640	034000 	000000 			.word	0011100000000000,0000000000000000
    462	006644	000000 	000000 			.word	0000000000000000,0000000000000000
    463
    464	006650	000000 	000000 		M15:	.word	0000000000000000,0000000000000000	; 5
    465	006654	000040 	000000 			.word	0000000000100000,0000000000000000
    466	006660	000340 	000000 			.word	0000000011100000,0000000000000000
    467	006664	001740 	000000 			.word	0000001111100000,0000000000000000
    468	006670	007740 	000000 			.word	0000111111100000,0000000000000000
GMOUSE - genius mouse DRAW for 	MACRO V05.06R Thursday 05-Sep-19 08:34  Page 4-12
Common definitions for bios monitor

    469	006674	037740 	000000 			.word	0011111111100000,0000000000000000
    470	006700	177740 	000000 			.word	1111111111100000,0000000000000000
    471	006704	017740 	000000 			.word	0001111111100000,0000000000000000
    472	006710	036340 	000000 			.word	0011110011100000,0000000000000000
    473	006714	034140 	000000 			.word	0011100001100000,0000000000000000
    474	006720	070000 	000000 			.word	0111000000000000,0000000000000000
    475	006724	000000 	000000 			.word	0000000000000000,0000000000000000
    476
    477	006730	000000 	000000 		M16:	.word	0000000000000000,0000000000000000 	; 6
    478	006734	000100 	000000 			.word	0000000001000000,0000000000000000
    479	006740	000700 	000000 			.word	0000000111000000,0000000000000000
    480	006744	003700 	000000 			.word	0000011111000000,0000000000000000
    481	006750	017700 	000000 			.word	0001111111000000,0000000000000000
    482	006754	077700 	000000 			.word	0111111111000000,0000000000000000
    483	006760	177700 	000001 			.word	1111111111000000,0000000000000001
    484	006764	037700 	000000 			.word	0011111111000000,0000000000000000
    485	006770	074700 	000000 			.word	0111100111000000,0000000000000000
    486	006774	070300 	000000 			.word	0111000011000000,0000000000000000
    487	007000	160000 	000000 			.word	1110000000000000,0000000000000000
    488	007004	000000 	000000 			.word	0000000000000000,0000000000000000
    489
    490	007010	000000 	000000 		M17:	.word	0000000000000000,0000000000000000 	; 7
    491	007014	000200 	000000 			.word	0000000010000000,0000000000000000
    492	007020	001600 	000000 			.word	0000001110000000,0000000000000000
    493	007024	007600 	000000 			.word	0000111110000000,0000000000000000
    494	007030	037600 	000000 			.word	0011111110000000,0000000000000000
    495	007034	177600 	000000 			.word	1111111110000000,0000000000000000
    496	007040	177600 	000003 			.word	1111111110000000,0000000000000011
    497	007044	077600 	000000 			.word	0111111110000000,0000000000000000
    498	007050	171600 	000000 			.word	1111001110000000,0000000000000000
    499	007054	160600 	000000 			.word	1110000110000000,0000000000000000
    500	007060	140000 	000001 			.word	1100000000000000,0000000000000001
    501	007064	000000 	000000 			.word	0000000000000000,0000000000000000
    502
    503	007070	000000 	000000 		M18:	.word	0000000000000000,0000000000000000 	; 8
    504	007074	000400 	000000 			.word	0000000100000000,0000000000000000
    505	007100	003400 	000000 			.word	0000011100000000,0000000000000000
    506	007104	017400 	000000 			.word	0001111100000000,0000000000000000
    507	007110	077400 	000000 			.word	0111111100000000,0000000000000000
    508	007114	177400 	000001 			.word	1111111100000000,0000000000000001
    509	007120	177400 	000007 			.word	1111111100000000,0000000000000111
    510	007124	177400 	000000 			.word	1111111100000000,0000000000000000
    511	007130	163400 	000001 			.word	1110011100000000,0000000000000001
    512	007134	141400 	000001 			.word	1100001100000000,0000000000000001
    513	007140	100000 	000003 			.word	1000000000000000,0000000000000011
    514	007144	000000 	000000 			.word	0000000000000000,0000000000000000
    515
    516
    517
    518
    519
    520	007150	000001 	000000 		MP11:	.word	0000000000000001,0000000000000000	; M1
    521	007154	000007 	000000 			.word	0000000000000111,0000000000000000
    522	007160	000037 	000000 			.word	0000000000011111,0000000000000000
    523	007164	000177 	000000 			.word	0000000001111111,0000000000000000
    524	007170	000777 	000000 			.word	0000000111111111,0000000000000000
    525	007174	003777 	000000 			.word	0000011111111111,0000000000000000
GMOUSE - genius mouse DRAW for 	MACRO V05.06R Thursday 05-Sep-19 08:34  Page 4-13
Common definitions for bios monitor

    526	007200	017777 	000000 			.word	0001111111111111,0000000000000000
    527	007204	017777 	000000 			.word	0001111111111111,0000000000000000
    528	007210	003777 	000000 			.word	0000011111111111,0000000000000000
    529	007214	003717 	000000 			.word	0000011111001111,0000000000000000
    530	007220	007606 	000000 			.word	0000111110000110,0000000000000000
    531	007224	007400 	000000 			.word	0000111100000000,0000000000000000
    532
    533	007230	000002 	000000 		MP12:	.word	0000000000000010,0000000000000000	; M2
    534	007234	000016 	000000 			.word	0000000000001110,0000000000000000
    535	007240	000076 	000000 			.word	0000000000111110,0000000000000000
    536	007244	000376 	000000 			.word	0000000011111110,0000000000000000
    537	007250	001776 	000000 			.word	0000001111111110,0000000000000000
    538	007254	007776 	000000 			.word	0000111111111110,0000000000000000
    539	007260	037776 	000000 			.word	0011111111111110,0000000000000000
    540	007264	037776 	000000 			.word	0011111111111110,0000000000000000
    541	007270	007776 	000000 			.word	0000111111111110,0000000000000000
    542	007274	007636 	000000 			.word	0000111110011110,0000000000000000
    543	007300	017414 	000000 			.word	0001111100001100,0000000000000000
    544	007304	017000 	000000 			.word	0001111000000000,0000000000000000
    545
    546	007310	000004 	000000 		MP13:	.word	0000000000000100,0000000000000000	; M3
    547	007314	000034 	000000 			.word	0000000000011100,0000000000000000
    548	007320	000174 	000000 			.word	0000000001111100,0000000000000000
    549	007324	000774 	000000 			.word	0000000111111100,0000000000000000
    550	007330	003774 	000000 			.word	0000011111111100,0000000000000000
    551	007334	017774 	000000 			.word	0001111111111100,0000000000000000
    552	007340	077774 	000000 			.word	0111111111111100,0000000000000000
    553	007344	077774 	000000 			.word	0111111111111100,0000000000000000
    554	007350	017774 	000000 			.word	0001111111111100,0000000000000000
    555	007354	017474 	000000 			.word	0001111100111100,0000000000000000
    556	007360	037030 	000000 			.word	0011111000011000,0000000000000000
    557	007364	036000 	000000 			.word	0011110000000000,0000000000000000
    558
    559	007370	000010 	000000 		MP14:	.word	0000000000001000,0000000000000000	; M4
    560	007374	000070 	000000 			.word	0000000000111000,0000000000000000
    561	007400	000370 	000000 			.word	0000000011111000,0000000000000000
    562	007404	001770 	000000 			.word	0000001111111000,0000000000000000
    563	007410	007770 	000000 			.word	0000111111111000,0000000000000000
    564	007414	037770 	000000 			.word	0011111111111000,0000000000000000
    565	007420	177770 	000000 			.word	1111111111111000,0000000000000000
    566	007424	177770 	000000 			.word	1111111111111000,0000000000000000
    567	007430	037770 	000000 			.word	0011111111111000,0000000000000000
    568	007434	037170 	000000 			.word	0011111001111000,0000000000000000
    569	007440	076060 	000000 			.word	0111110000110000,0000000000000000
    570	007444	074000 	000000 			.word	0111100000000000,0000000000000000
    571
    572	007450	000020 	000000 		MP15:	.word	0000000000010000,0000000000000000 	; M5
    573	007454	000160 	000000 			.word	0000000001110000,0000000000000000
    574	007460	000760 	000000 			.word	0000000111110000,0000000000000000
    575	007464	003760 	000000 			.word	0000011111110000,0000000000000000
    576	007470	017760 	000000 			.word	0001111111110000,0000000000000000
    577	007474	077760 	000000 			.word	0111111111110000,0000000000000000
    578	007500	177760 	000001 			.word	1111111111110000,0000000000000001
    579	007504	177760 	000001 			.word	1111111111110000,0000000000000001
    580	007510	077760 	000000 			.word	0111111111110000,0000000000000000
    581	007514	076360 	000000 			.word	0111110011110000,0000000000000000
    582	007520	174140 	000000 			.word	1111100001100000,0000000000000000
GMOUSE - genius mouse DRAW for 	MACRO V05.06R Thursday 05-Sep-19 08:34  Page 4-14
Common definitions for bios monitor

    583	007524	170000 	000000 			.word	1111000000000000,0000000000000000
    584
    585	007530	000040 	000000 		MP16:	.word	0000000000100000,0000000000000000 	; M6
    586	007534	000340 	000000 			.word	0000000011100000,0000000000000000
    587	007540	001740 	000000 			.word	0000001111100000,0000000000000000
    588	007544	007740 	000000 			.word	0000111111100000,0000000000000000
    589	007550	037740 	000000 			.word	0011111111100000,0000000000000000
    590	007554	177740 	000000 			.word	1111111111100000,0000000000000000
    591	007560	177740 	000003 			.word	1111111111100000,0000000000000011
    592	007564	177740 	000003 			.word	1111111111100000,0000000000000011
    593	007570	177740 	000000 			.word	1111111111100000,0000000000000000
    594	007574	174740 	000000 			.word	1111100111100000,0000000000000000
    595	007600	170300 	000001 			.word	1111000011000000,0000000000000001
    596	007604	160000 	000001 			.word	1110000000000000,0000000000000001
    597
    598	007610	000100 	000000 		MP17:	.word	0000000001000000,0000000000000000 	; M7
    599	007614	000700 	000000 			.word	0000000111000000,0000000000000000
    600	007620	003700 	000000 			.word	0000011111000000,0000000000000000
    601	007624	017700 	000000 			.word	0001111111000000,0000000000000000
    602	007630	077700 	000000 			.word	0111111111000000,0000000000000000
    603	007634	177700 	000001 			.word	1111111111000000,0000000000000001
    604	007640	177700 	000007 			.word	1111111111000000,0000000000000111
    605	007644	177700 	000007 			.word	1111111111000000,0000000000000111
    606	007650	177700 	000001 			.word	1111111111000000,0000000000000001
    607	007654	171700 	000001 			.word	1111001111000000,0000000000000001
    608	007660	160600 	000003 			.word	1110000110000000,0000000000000011
    609	007664	140000 	000003 			.word	1100000000000000,0000000000000011
    610
    611	007670	000200 	000000 		MP18:	.word	0000000010000000,0000000000000000 	; M8
    612	007674	001600 	000000 			.word	0000001110000000,0000000000000000
    613	007700	007600 	000000 			.word	0000111110000000,0000000000000000
    614	007704	037600 	000000 			.word	0011111110000000,0000000000000000
    615	007710	177600 	000000 			.word	1111111110000000,0000000000000000
    616	007714	177600 	000003 			.word	1111111110000000,0000000000000011
    617	007720	177600 	000017 			.word	1111111110000000,0000000000001111
    618	007724	177600 	000017 			.word	1111111110000000,0000000000001111
    619	007730	177600 	000003 			.word	1111111110000000,0000000000000011
    620	007734	163600 	000003 			.word	1110011110000000,0000000000000011
    621	007740	141400 	000007 			.word	1100001100000000,0000000000000111
    622	007744	100000 	000007 			.word	1000000000000000,0000000000000111
    623
    624	007750	000014 	000000 	000000 	M21:	.word	0000000000001100,0000000000000000,0000000000000000	; 1
    625	007756	000374 	000000 	000000 		.word	0000000011111100,0000000000000000,0000000000000000
    626	007764	007774 	000000 	000000 		.word	0000111111111100,0000000000000000,0000000000000000
    627	007772	177774 	000000 	000000 		.word	1111111111111100,0000000000000000,0000000000000000
    628	010000	177774 	000017 	000000 		.word	1111111111111100,0000000000001111,0000000000000000
    629	010006	177774 	000377 	000000 		.word	1111111111111100,0000000011111111,0000000000000000
    630	010014	177774 	007777 	000000 		.word	1111111111111100,0000111111111111,0000000000000000
    631	010022	177774 	000017 	000000 		.word	1111111111111100,0000000000001111,0000000000000000
    632	010030	140374 	000017 	000000 		.word	1100000011111100,0000000000001111,0000000000000000
    633	010036	000074 	000077 	000000 		.word	0000000000111100,0000000000111111,0000000000000000
    634	010044	000000 	000374 	000000 		.word	0000000000000000,0000000011111100,0000000000000000
    635	010052	000000 	000000 	000000 		.word	0000000000000000,0000000000000000,0000000000000000
    636
    637	010060	000060 	000000 	000000 	M22:	.word	0000000000110000,0000000000000000,0000000000000000	; 2
    638	010066	001760 	000000 	000000 		.word	0000001111110000,0000000000000000,0000000000000000
    639	010074	037760 	000000 	000000 		.word	0011111111110000,0000000000000000,0000000000000000
GMOUSE - genius mouse DRAW for 	MACRO V05.06R Thursday 05-Sep-19 08:34  Page 4-15
Common definitions for bios monitor

    640	010102	177760 	000003 	000000 		.word	1111111111110000,0000000000000011,0000000000000000
    641	010110	177760 	000077 	000000 		.word	1111111111110000,0000000000111111,0000000000000000
    642	010116	177760 	001777 	000000 		.word	1111111111110000,0000001111111111,0000000000000000
    643	010124	177760 	037777 	000000 		.word	1111111111110000,0011111111111111,0000000000000000
    644	010132	177760 	000077 	000000 		.word	1111111111110000,0000000000111111,0000000000000000
    645	010140	001760 	000077 	000000 		.word	0000001111110000,0000000000111111,0000000000000000
    646	010146	000360 	000374 	000000 		.word	0000000011110000,0000000011111100,0000000000000000
    647	010154	000000 	001760 	000000 		.word	0000000000000000,0000001111110000,0000000000000000
    648	010162	000000 	000000 	000000 		.word	0000000000000000,0000000000000000,0000000000000000
    649
    650	010170	000300 	000000 	000000 	M23:	.word	0000000011000000,0000000000000000,0000000000000000	; 3
    651	010176	007700 	000000 	000000 		.word	0000111111000000,0000000000000000,0000000000000000
    652	010204	177700 	000000 	000000 		.word	1111111111000000,0000000000000000,0000000000000000
    653	010212	177700 	000017 	000000 		.word	1111111111000000,0000000000001111,0000000000000000
    654	010220	177700 	000377 	000000 		.word	1111111111000000,0000000011111111,0000000000000000
    655	010226	177700 	007777 	000000 		.word	1111111111000000,0000111111111111,0000000000000000
    656	010234	177700 	177777 	000000 		.word	1111111111000000,1111111111111111,0000000000000000
    657	010242	177700 	000377 	000000 		.word	1111111111000000,0000000011111111,0000000000000000
    658	010250	007700 	000374 	000000 		.word	0000111111000000,0000000011111100,0000000000000000
    659	010256	001700 	001760 	000000 		.word	0000001111000000,0000001111110000,0000000000000000
    660	010264	000000 	007700 	000000 		.word	0000000000000000,0000111111000000,0000000000000000
    661	010272	000000 	000000 	000000 		.word	0000000000000000,0000000000000000,0000000000000000
    662
    663	010300	001400 	000000 	000000 	M24:	.word	0000001100000000,0000000000000000,0000000000000000	; 4
    664	010306	037400 	000000 	000000 		.word	0011111100000000,0000000000000000,0000000000000000
    665	010314	177400 	000003 	000000 		.word	1111111100000000,0000000000000011,0000000000000000
    666	010322	177400 	000077 	000000 		.word	1111111100000000,0000000000111111,0000000000000000
    667	010330	177400 	001777 	000000 		.word	1111111100000000,0000001111111111,0000000000000000
    668	010336	177400 	037777 	000000 		.word	1111111100000000,0011111111111111,0000000000000000
    669	010344	177400 	177777 	000003 		.word	1111111100000000,1111111111111111,0000000000000011
    670	010352	177400 	001777 	000000 		.word	1111111100000000,0000001111111111,0000000000000000
    671	010360	037400 	001760 	000000 		.word	0011111100000000,0000001111110000,0000000000000000
    672	010366	007400 	007700 	000000 		.word	0000111100000000,0000111111000000,0000000000000000
    673	010374	000000 	037400 	000000 		.word	0000000000000000,0011111100000000,0000000000000000
    674	010402	000000 	000000 	000000 		.word	0000000000000000,0000000000000000,0000000000000000
    675
    676	010410	000377 	000000 	000000 	MP21:	.word	0000000011111111,0000000000000000,0000000000000000	 ; M1
    677	010416	007777 	000000 	000000 		.word	0000111111111111,0000000000000000,0000000000000000
    678	010424	177777 	000000 	000000 		.word	1111111111111111,0000000000000000,0000000000000000
    679	010432	177777 	000017 	000000 		.word	1111111111111111,0000000000001111,0000000000000000
    680	010440	177777 	000377 	000000 		.word	1111111111111111,0000000011111111,0000000000000000
    681	010446	177777 	007777 	000000 		.word	1111111111111111,0000111111111111,0000000000000000
    682	010454	177777 	037777 	000000 		.word	1111111111111111,0011111111111111,0000000000000000
    683	010462	177777 	037777 	000000 		.word	1111111111111111,0011111111111111,0000000000000000
    684	010470	177777 	000077 	000000 		.word	1111111111111111,0000000000111111,0000000000000000
    685	010476	141777 	000377 	000000 		.word	1100001111111111,0000000011111111,0000000000000000
    686	010504	000377 	001777 	000000 		.word	0000000011111111,0000001111111111,0000000000000000
    687	010512	000000 	001774 	000000 		.word	0000000000000000,0000001111111100,0000000000000000
    688
    689	010520	003774 	000000 	000000 	MP22:	.word	0000011111111100,0000000000000000,0000000000000000	 ; M2
    690	010526	037774 	000000 	000000 		.word	0011111111111100,0000000000000000,0000000000000000
    691	010534	177774 	000003 	000000 		.word	1111111111111100,0000000000000011,0000000000000000
    692	010542	177774 	000077 	000000 		.word	1111111111111100,0000000000111111,0000000000000000
    693	010550	177774 	001777 	000000 		.word	1111111111111100,0000001111111111,0000000000000000
    694	010556	177774 	037777 	000000 		.word	1111111111111100,0011111111111111,0000000000000000
    695	010564	177774 	177777 	000000 		.word	1111111111111100,1111111111111111,0000000000000000
    696	010572	177774 	177777 	000000 		.word	1111111111111100,1111111111111111,0000000000000000
GMOUSE - genius mouse DRAW for 	MACRO V05.06R Thursday 05-Sep-19 08:34  Page 4-16
Common definitions for bios monitor

    697	010600	177774 	000377 	000000 		.word	1111111111111100,0000000011111111,0000000000000000
    698	010606	007774 	001777 	000000 		.word	0000111111111100,0000001111111111,0000000000000000
    699	010614	001774 	007774 	000000 		.word	0000001111111100,0000111111111100,0000000000000000
    700	010622	000000 	007760 	000000 		.word	0000000000000000,0000111111110000,0000000000000000
    701
    702	010630	007760 	000000 	000000 	MP23:	.word	0000111111110000,0000000000000000,0000000000000000	 ; M3
    703	010636	177760 	000000 	000000 		.word	1111111111110000,0000000000000000,0000000000000000
    704	010644	177760 	000017 	000000 		.word	1111111111110000,0000000000001111,0000000000000000
    705	010652	177760 	000377 	000000 		.word	1111111111110000,0000000011111111,0000000000000000
    706	010660	177760 	007777 	000000 		.word	1111111111110000,0000111111111111,0000000000000000
    707	010666	177760 	177777 	000000 		.word	1111111111110000,1111111111111111,0000000000000000
    708	010674	177760 	177777 	000003 		.word	1111111111110000,1111111111111111,0000000000000011
    709	010702	177760 	177777 	000003 		.word	1111111111110000,1111111111111111,0000000000000011
    710	010710	177760 	001777 	000000 		.word	1111111111110000,0000001111111111,0000000000000000
    711	010716	037760 	007774 	000000 		.word	0011111111110000,0000111111111100,0000000000000000
    712	010724	007760 	037760 	000000 		.word	0000111111110000,0011111111110000,0000000000000000
    713	010732	000000 	037700 	000000 		.word	0000000000000000,0011111111000000,0000000000000000
    714
    715	010740	037700 	000000 	000000 	MP24:	.word	0011111111000000,0000000000000000,0000000000000000	 ; M4
    716	010746	177700 	000003 	000000 		.word	1111111111000000,0000000000000011,0000000000000000
    717	010754	177700 	000077 	000000 		.word	1111111111000000,0000000000111111,0000000000000000
    718	010762	177700 	001777 	000000 		.word	1111111111000000,0000001111111111,0000000000000000
    719	010770	177700 	037777 	000000 		.word	1111111111000000,0011111111111111,0000000000000000
    720	010776	177700 	177777 	000003 		.word	1111111111000000,1111111111111111,0000000000000011
    721	011004	177700 	177777 	000017 		.word	1111111111000000,1111111111111111,0000000000001111
    722	011012	177700 	177777 	000017 		.word	1111111111000000,1111111111111111,0000000000001111
    723	011020	177700 	007777 	000000 		.word	1111111111000000,0000111111111111,0000000000000000
    724	011026	177700 	037760 	000000 		.word	1111111111000000,0011111111110000,0000000000000000
    725	011034	037700 	177700 	000000 		.word	0011111111000000,1111111111000000,0000000000000000
    726	011042	000000 	177400 	000000 		.word	0000000000000000,1111111100000000,0000000000000000
    727
    728	011050	000017 	000000 		M41:	.word	0000000000001111,0000000000000000	; 1
    729	011054	000377 	000000 			.word	0000000011111111,0000000000000000
    730	011060	007777 	000000 			.word	0000111111111111,0000000000000000
    731	011064	177777 	000000 			.word	1111111111111111,0000000000000000
    732	011070	177777 	000017 			.word	1111111111111111,0000000000001111
    733	011074	177777 	000377 			.word	1111111111111111,0000000011111111
    734	011100	177777 	007777 			.word	1111111111111111,0000111111111111
    735	011104	177777 	000017 			.word	1111111111111111,0000000000001111
    736	011110	170377 	000017 			.word	1111000011111111,0000000000001111
    737	011114	000017 	000377 			.word	0000000000001111,0000000011111111
    738	011120	000000 	000377 			.word	0000000000000000,0000000011111111
    739	011124	000000 	000000 			.word	0000000000000000,0000000000000000
    740
    741	011130	000360 	000000 		M42:	.word	0000000011110000,0000000000000000	; 2
    742	011134	007760 	000000 			.word	0000111111110000,0000000000000000
    743	011140	177760 	000000 			.word	1111111111110000,0000000000000000
    744	011144	177760 	000017 			.word	1111111111110000,0000000000001111
    745	011150	177760 	000377 			.word	1111111111110000,0000000011111111
    746	011154	177760 	007777 			.word	1111111111110000,0000111111111111
    747	011160	177760 	177777 			.word	1111111111110000,1111111111111111
    748	011164	177760 	000377 			.word	1111111111110000,0000000011111111
    749	011170	007760 	000377 			.word	0000111111110000,0000000011111111
    750	011174	000360 	007760 			.word	0000000011110000,0000111111110000
    751	011200	000000 	007760 			.word	0000000000000000,0000111111110000
    752	011204	000000 	000000 			.word	0000000000000000,0000000000000000
    753
GMOUSE - genius mouse DRAW for 	MACRO V05.06R Thursday 05-Sep-19 08:34  Page 4-17
Common definitions for bios monitor

    754	011210	000377 	000000 		MP41:	.word	0000000011111111,0000000000000000	; M1
    755	011214	007777 	000000 			.word	0000111111111111,0000000000000000
    756	011220	177777 	000000 			.word	1111111111111111,0000000000000000
    757	011224	177777 	000017 			.word	1111111111111111,0000000000001111
    758	011230	177777 	000377 			.word	1111111111111111,0000000011111111
    759	011234	177777 	007777 			.word	1111111111111111,0000111111111111
    760	011240	177777 	007777 			.word	1111111111111111,0000111111111111
    761	011244	177777 	007777 			.word	1111111111111111,0000111111111111
    762	011250	177777 	000377 			.word	1111111111111111,0000000011111111
    763	011254	170377 	007777 			.word	1111000011111111,0000111111111111
    764	011260	000017 	007777 			.word	0000000000001111,0000111111111111
    765	011264	000000 	007777 			.word	0000000000000000,0000111111111111
    766
    767	011270	007760 	000000 		MP42:	.word	0000111111110000,0000000000000000	; M2
    768	011274	177760 	000000 			.word	1111111111110000,0000000000000000
    769	011300	177760 	000017 			.word	1111111111110000,0000000000001111
    770	011304	177760 	000377 			.word	1111111111110000,0000000011111111
    771	011310	177760 	007777 			.word	1111111111110000,0000111111111111
    772	011314	177760 	177777 			.word	1111111111110000,1111111111111111
    773	011320	177760 	177777 			.word	1111111111110000,1111111111111111
    774	011324	177760 	177777 			.word	1111111111110000,1111111111111111
    775	011330	177760 	007777 			.word	1111111111110000,0000111111111111
    776	011334	007760 	177777 			.word	0000111111110000,1111111111111111
    777	011340	000360 	177760 			.word	0000000011110000,1111111111110000
    778	011344	000000 	177760 			.word	0000000000000000,1111111111110000
    779
    780		000010 				.radix	8
    781
    782
    783	011350	   377 	   377 	   377 	M81:	.byte	377,377,377,377
	011353	   377
    784	011354	   377 	   377 	   000 		.byte	377,377,000,000
	011357	   000
    785	011360	   377 	   377 	   000 		.byte	377,377,000,000
	011363	   000
    786	011364	   377 	   000 	   377 		.byte	377,000,377,000
	011367	   000
    787	011370	   377 	   000 	   377 		.byte	377,000,377,000
	011373	   000
    788	011374	   377 	   000 	   000 		.byte	377,000,000,377
	011377	   377
    789	011400	   377 	   000 	   000 		.byte	377,000,000,377
	011403	   377
    790	011404	   000 	   000 	   000 		.byte	000,000,000,000
	011407	   000
    791	011410	   000 	   000 	   000 		.byte	000,000,000,000
	011413	   000
    792	011414	   000 	   000 	   000 		.byte	000,000,000,000
	011417	   000
    793	011420	   000 	   000 	   000 		.byte	000,000,000,000
	011423	   000
    794	011424	   000 	   000 	   000 		.byte	000,000,000,000
	011427	   000
    795
    796	011430	   377 	   377 	   377 	MP81:	.byte	377,377,377,377
	011433	   377
    797	011434	   377 	   377 	   377 		.byte	377,377,377,377
GMOUSE - genius mouse DRAW for 	MACRO V05.06R Thursday 05-Sep-19 08:34  Page 4-18
Common definitions for bios monitor

	011437	   377
    798	011440	   377 	   377 	   377 		.byte	377,377,377,000
	011443	   000
    799	011444	   377 	   377 	   377 		.byte	377,377,377,000
	011447	   000
    800	011450	   377 	   377 	   377 		.byte	377,377,377,377
	011453	   377
    801	011454	   377 	   000 	   377 		.byte	377,000,377,377
	011457	   377
    802	011460	   377 	   000 	   377 		.byte	377,000,377,377
	011463	   377
    803	011464	   000 	   000 	   000 		.byte	000,000,000,000
	011467	   000
    804	011470	   000 	   000 	   000 		.byte	000,000,000,000
	011473	   000
    805	011474	   000 	   000 	   000 		.byte	000,000,000,000
	011477	   000
    806	011500	   000 	   000 	   000 		.byte	000,000,000,000
	011503	   000
    807	011504	   000 	   000 	   000 		.byte	000,000,000,000
	011507	   000
    808
    809
    810		000002 				.radix	2
    811
    812	011510	000000 	000000 		W11:	.word	0000000000000000,0000000000000000
    813	011514	000000 	000000 			.word	0000000000000000,0000000000000000
    814	011520	000000 	000000 			.word	0000000000000000,0000000000000000
    815	011524	037774 	000000 			.word	0011111111111100,0000000000000000
    816	011530	037174 	000000 			.word	0011111001111100,0000000000000000
    817	011534	037004 	000000 			.word	0011111000000100,0000000000000000
    818	011540	037774 	000000 			.word	0011111111111100,0000000000000000
    819	011544	037774 	000000 			.word	0011111111111100,0000000000000000
    820	011550	000000 	000000 			.word	0000000000000000,0000000000000000
    821	011554	000000 	000000 			.word	0000000000000000,0000000000000000
    822	011560	000000 	000000 			.word	0000000000000000,0000000000000000
    823	011564	000000 	000000 			.word	0000000000000000,0000000000000000
    824
    825	011570	000000 	000000 		W12:	.word	0000000000000000,0000000000000000
    826	011574	000000 	000000 			.word	0000000000000000,0000000000000000
    827	011600	000000 	000000 			.word	0000000000000000,0000000000000000
    828	011604	077770 	000000 			.word	0111111111111000,0000000000000000
    829	011610	076370 	000000 			.word	0111110011111000,0000000000000000
    830	011614	076370 	000000 			.word	0111110011111000,0000000000000000
    831	011620	077470 	000000 			.word	0111111100111000,0000000000000000
    832	011624	077710 	000000 			.word	0111111111001000,0000000000000000
    833	011630	000000 	000000 			.word	0000000000000000,0000000000000000
    834	011634	000000 	000000 			.word	0000000000000000,0000000000000000
    835	011640	000000 	000000 			.word	0000000000000000,0000000000000000
    836	011644	000000 	000000 			.word	0000000000000000,0000000000000000
    837
    838	011650	000000 	000000 		W13:	.word	0000000000000000,0000000000000000
    839	011654	000000 	000000 			.word	0000000000000000,0000000000000000
    840	011660	000000 	000000 			.word	0000000000000000,0000000000000000
    841	011664	177760 	000000 			.word	1111111111110000,0000000000000000
    842	011670	174760 	000000 			.word	1111100111110000,0000000000000000
    843	011674	174760 	000000 			.word	1111100111110000,0000000000000000
GMOUSE - genius mouse DRAW for 	MACRO V05.06R Thursday 05-Sep-19 08:34  Page 4-19
Common definitions for bios monitor

    844	011700	174760 	000000 			.word	1111100111110000,0000000000000000
    845	011704	174760 	000000 			.word	1111100111110000,0000000000000000
    846	011710	000000 	000000 			.word	0000000000000000,0000000000000000
    847	011714	000000 	000000 			.word	0000000000000000,0000000000000000
    848	011720	000000 	000000 			.word	0000000000000000,0000000000000000
    849	011724	000000 	000000 			.word	0000000000000000,0000000000000000
    850
    851	011730	000000 	000000 		W14:	.word	0000000000000000,0000000000000000
    852	011734	000000 	000000 			.word	0000000000000000,0000000000000000
    853	011740	000000 	000000 			.word	0000000000000000,0000000000000000
    854	011744	177740 	000001 			.word	1111111111100000,0000000000000001
    855	011750	171740 	000001 			.word	1111001111100000,0000000000000001
    856	011754	171740 	000001 			.word	1111001111100000,0000000000000001
    857	011760	147740 	000001 			.word	1100111111100000,0000000000000001
    858	011764	037740 	000001 			.word	0011111111100000,0000000000000001
    859	011770	000000 	000000 			.word	0000000000000000,0000000000000000
    860	011774	000000 	000000 			.word	0000000000000000,0000000000000000
    861	012000	000000 	000000 			.word	0000000000000000,0000000000000000
    862	012004	000000 	000000 			.word	0000000000000000,0000000000000000
    863
    864	012010	000000 	000000 		W15:	.word	0000000000000000,0000000000000000
    865	012014	000000 	000000 			.word	0000000000000000,0000000000000000
    866	012020	000000 	000000 			.word	0000000000000000,0000000000000000
    867	012024	177700 	000003 			.word	1111111111000000,0000000000000011
    868	012030	163700 	000003 			.word	1110011111000000,0000000000000011
    869	012034	003700 	000002 			.word	0000011111000000,0000000000000010
    870	012040	177700 	000003 			.word	1111111111000000,0000000000000011
    871	012044	177700 	000003 			.word	1111111111000000,0000000000000011
    872	012050	000000 	000000 			.word	0000000000000000,0000000000000000
    873	012054	000000 	000000 			.word	0000000000000000,0000000000000000
    874	012060	000000 	000000 			.word	0000000000000000,0000000000000000
    875	012064	000000 	000000 			.word	0000000000000000,0000000000000000
    876
    877	012070	000000 	000000 		W16:	.word	0000000000000000,0000000000000000
    878	012074	000000 	000000 			.word	0000000000000000,0000000000000000
    879	012100	000000 	000000 			.word	0000000000000000,0000000000000000
    880	012104	177600 	000004 			.word	1111111110000000,0000000000000100
    881	012110	007600 	000007 			.word	0000111110000000,0000000000000111
    882	012114	147600 	000007 			.word	1100111110000000,0000000000000111
    883	012120	177600 	000007 			.word	1111111110000000,0000000000000111
    884	012124	177600 	000007 			.word	1111111110000000,0000000000000111
    885	012130	000000 	000000 			.word	0000000000000000,0000000000000000
    886	012134	000000 	000000 			.word	0000000000000000,0000000000000000
    887	012140	000000 	000000 			.word	0000000000000000,0000000000000000
    888	012144	000000 	000000 			.word	0000000000000000,0000000000000000
    889
    890	012150	000000 	000000 		W17:	.word	0000000000000000,0000000000000000
    891	012154	000000 	000000 			.word	0000000000000000,0000000000000000
    892	012160	000000 	000000 			.word	0000000000000000,0000000000000000
    893	012164	117400 	000017 			.word	1001111100000000,0000000000001111
    894	012170	117400 	000017 			.word	1001111100000000,0000000000001111
    895	012174	117400 	000017 			.word	1001111100000000,0000000000001111
    896	012200	177400 	000017 			.word	1111111100000000,0000000000001111
    897	012204	177400 	000017 			.word	1111111100000000,0000000000001111
    898	012210	000000 	000000 			.word	0000000000000000,0000000000000000
    899	012214	000000 	000000 			.word	0000000000000000,0000000000000000
    900	012220	000000 	000000 			.word	0000000000000000,0000000000000000
GMOUSE - genius mouse DRAW for 	MACRO V05.06R Thursday 05-Sep-19 08:34  Page 4-20
Common definitions for bios monitor

    901	012224	000000 	000000 			.word	0000000000000000,0000000000000000
    902
    903	012230	000000 	000000 		W18:	.word	0000000000000000,0000000000000000
    904	012234	000000 	000000 			.word	0000000000000000,0000000000000000
    905	012240	000000 	000000 			.word	0000000000000000,0000000000000000
    906	012244	171000 	000037 			.word	1111001000000000,0000000000011111
    907	012250	007000 	000037 			.word	0000111000000000,0000000000011111
    908	012254	037000 	000037 			.word	0011111000000000,0000000000011111
    909	012260	177000 	000037 			.word	1111111000000000,0000000000011111
    910	012264	177000 	000037 			.word	1111111000000000,0000000000011111
    911	012270	000000 	000000 			.word	0000000000000000,0000000000000000
    912	012274	000000 	000000 			.word	0000000000000000,0000000000000000
    913	012300	000000 	000000 			.word	0000000000000000,0000000000000000
    914	012304	000000 	000000 			.word	0000000000000000,0000000000000000
    915
    916	012310	017770 	000000 		WP11:	.word	0001111111111000,0000000000000000
    917	012314	017770 	000000 			.word	0001111111111000,0000000000000000
    918	012320	037774 	000000 			.word	0011111111111100,0000000000000000
    919	012324	177777 	000000 			.word	1111111111111111,0000000000000000
    920	012330	177777 	000000 			.word	1111111111111111,0000000000000000
    921	012334	177777 	000000 			.word	1111111111111111,0000000000000000
    922	012340	177777 	000000 			.word	1111111111111111,0000000000000000
    923	012344	177777 	000000 			.word	1111111111111111,0000000000000000
    924	012350	037774 	000000 			.word	0011111111111100,0000000000000000
    925	012354	017770 	000000 			.word	0001111111111000,0000000000000000
    926	012360	017770 	000000 			.word	0001111111111000,0000000000000000
    927	012364	017770 	000000 			.word	0001111111111000,0000000000000000
    928
    929	012370	037760 	000000 		WP12:	.word	0011111111110000,0000000000000000
    930	012374	037760 	000000 			.word	0011111111110000,0000000000000000
    931	012400	077770 	000000 			.word	0111111111111000,0000000000000000
    932	012404	177776 	000001 			.word	1111111111111110,0000000000000001
    933	012410	177776 	000001 			.word	1111111111111110,0000000000000001
    934	012414	177776 	000001 			.word	1111111111111110,0000000000000001
    935	012420	177776 	000001 			.word	1111111111111110,0000000000000001
    936	012424	177776 	000001 			.word	1111111111111110,0000000000000001
    937	012430	077770 	000000 			.word	0111111111111000,0000000000000000
    938	012434	037760 	000000 			.word	0011111111110000,0000000000000000
    939	012440	037760 	000000 			.word	0011111111110000,0000000000000000
    940	012444	037760 	000000 			.word	0011111111110000,0000000000000000
    941
    942	012450	077740 	000000 		WP13:	.word	0111111111100000,0000000000000000
    943	012454	077740 	000000 			.word	0111111111100000,0000000000000000
    944	012460	177760 	000000 			.word	1111111111110000,0000000000000000
    945	012464	177774 	000003 			.word	1111111111111100,0000000000000011
    946	012470	177774 	000003 			.word	1111111111111100,0000000000000011
    947	012474	177774 	000003 			.word	1111111111111100,0000000000000011
    948	012500	177774 	000003 			.word	1111111111111100,0000000000000011
    949	012504	177774 	000003 			.word	1111111111111100,0000000000000011
    950	012510	177760 	000000 			.word	1111111111110000,0000000000000000
    951	012514	077740 	000000 			.word	0111111111100000,0000000000000000
    952	012520	077740 	000000 			.word	0111111111100000,0000000000000000
    953	012524	077740 	000000 			.word	0111111111100000,0000000000000000
    954
    955	012530	177700 	000000 		WP14:	.word	1111111111000000,0000000000000000
    956	012534	177700 	000000 			.word	1111111111000000,0000000000000000
    957	012540	177740 	000001 			.word	1111111111100000,0000000000000001
GMOUSE - genius mouse DRAW for 	MACRO V05.06R Thursday 05-Sep-19 08:34  Page 4-21
Common definitions for bios monitor

    958	012544	177770 	000007 			.word	1111111111111000,0000000000000111
    959	012550	177770 	000007 			.word	1111111111111000,0000000000000111
    960	012554	177770 	000007 			.word	1111111111111000,0000000000000111
    961	012560	177770 	000007 			.word	1111111111111000,0000000000000111
    962	012564	177770 	000007 			.word	1111111111111000,0000000000000111
    963	012570	177740 	000001 			.word	1111111111100000,0000000000000001
    964	012574	177700 	000000 			.word	1111111111000000,0000000000000000
    965	012600	177700 	000000 			.word	1111111111000000,0000000000000000
    966	012604	177700 	000000 			.word	1111111111000000,0000000000000000
    967
    968	012610	177600 	000001 		WP15:	.word	1111111110000000,0000000000000001
    969	012614	177600 	000001 			.word	1111111110000000,0000000000000001
    970	012620	177700 	000003 			.word	1111111111000000,0000000000000011
    971	012624	177760 	000017 			.word	1111111111110000,0000000000001111
    972	012630	177760 	000017 			.word	1111111111110000,0000000000001111
    973	012634	177760 	000017 			.word	1111111111110000,0000000000001111
    974	012640	177760 	000017 			.word	1111111111110000,0000000000001111
    975	012644	177760 	000017 			.word	1111111111110000,0000000000001111
    976	012650	177700 	000003 			.word	1111111111000000,0000000000000011
    977	012654	177600 	000001 			.word	1111111110000000,0000000000000001
    978	012660	177600 	000001 			.word	1111111110000000,0000000000000001
    979	012664	177600 	000001 			.word	1111111110000000,0000000000000001
    980
    981	012670	177400 	000003 		WP16:	.word	1111111100000000,0000000000000011
    982	012674	177400 	000003 			.word	1111111100000000,0000000000000011
    983	012700	177600 	000007 			.word	1111111110000000,0000000000000111
    984	012704	177740 	000037 			.word	1111111111100000,0000000000011111
    985	012710	177740 	000037 			.word	1111111111100000,0000000000011111
    986	012714	177740 	000037 			.word	1111111111100000,0000000000011111
    987	012720	177740 	000037 			.word	1111111111100000,0000000000011111
    988	012724	177740 	000037 			.word	1111111111100000,0000000000011111
    989	012730	177600 	000007 			.word	1111111110000000,0000000000000111
    990	012734	177400 	000003 			.word	1111111100000000,0000000000000011
    991	012740	177400 	000003 			.word	1111111100000000,0000000000000011
    992	012744	177400 	000003 			.word	1111111100000000,0000000000000011
    993
    994	012750	177000 	000007 		WP17:	.word	1111111000000000,0000000000000111
    995	012754	177000 	000007 			.word	1111111000000000,0000000000000111
    996	012760	177400 	000017 			.word	1111111100000000,0000000000001111
    997	012764	177700 	000077 			.word	1111111111000000,0000000000111111
    998	012770	177700 	000077 			.word	1111111111000000,0000000000111111
    999	012774	177700 	000077 			.word	1111111111000000,0000000000111111
   1000	013000	177700 	000077 			.word	1111111111000000,0000000000111111
   1001	013004	177700 	000077 			.word	1111111111000000,0000000000111111
   1002	013010	177400 	000017 			.word	1111111100000000,0000000000001111
   1003	013014	177000 	000007 			.word	1111111000000000,0000000000000111
   1004	013020	177000 	000007 			.word	1111111000000000,0000000000000111
   1005	013024	177000 	000007 			.word	1111111000000000,0000000000000111
   1006
   1007	013030	176000 	000017 		WP18:	.word	1111110000000000,0000000000001111
   1008	013034	176000 	000017 			.word	1111110000000000,0000000000001111
   1009	013040	177000 	000037 			.word	1111111000000000,0000000000011111
   1010	013044	177600 	000177 			.word	1111111110000000,0000000001111111
   1011	013050	177600 	000177 			.word	1111111110000000,0000000001111111
   1012	013054	177600 	000177 			.word	1111111110000000,0000000001111111
   1013	013060	177600 	000177 			.word	1111111110000000,0000000001111111
   1014	013064	177600 	000177 			.word	1111111110000000,0000000001111111
GMOUSE - genius mouse DRAW for 	MACRO V05.06R Thursday 05-Sep-19 08:34  Page 4-22
Common definitions for bios monitor

   1015	013070	177000 	000037 			.word	1111111000000000,0000000000011111
   1016	013074	176000 	000017 			.word	1111110000000000,0000000000001111
   1017	013100	176000 	000017 			.word	1111110000000000,0000000000001111
   1018	013104	176000 	000017 			.word	1111110000000000,0000000000001111
   1019
   1020
   1021
   1022
   1023	013110	000000 	000000 	000000 	W21:	.word	0000000000000000,0000000000000000,0000000000000000
   1024	013116	000000 	000000 	000000 		.word	0000000000000000,0000000000000000,0000000000000000
   1025	013124	125240 	005252 	000000 		.word	1010101010100000,0000101010101010,0000000000000000
   1026	013132	177770 	027777 	000000 		.word	1111111111111000,0010111111111111,0000000000000000
   1027	013140	037770 	027774 	000000 		.word	0011111111111000,0010111111111100,0000000000000000
   1028	013146	037770 	026000 	000000 		.word	0011111111111000,0010110000000000,0000000000000000
   1029	013154	177770 	027777 	000000 		.word	1111111111111000,0010111111111111,0000000000000000
   1030	013162	177770 	027777 	000000 		.word	1111111111111000,0010111111111111,0000000000000000
   1031	013170	125240 	005252 	000000 		.word	1010101010100000,0000101010101010,0000000000000000
   1032	013176	000000 	000000 	000000 		.word	0000000000000000,0000000000000000,0000000000000000
   1033	013204	000000 	000000 	000000 		.word	0000000000000000,0000000000000000,0000000000000000
   1034	013212	000000 	000000 	000000 		.word	0000000000000000,0000000000000000,0000000000000000
   1035
   1036	013220	000000 	000000 	000000 	W22:	.word	0000000000000000,0000000000000000,0000000000000000
   1037	013226	000000 	000000 	000000 		.word	0000000000000000,0000000000000000,0000000000000000
   1038	013234	125200 	025252 	000000 		.word	1010101010000000,0010101010101010,0000000000000000
   1039	013242	177740 	137777 	000000 		.word	1111111111100000,1011111111111111,0000000000000000
   1040	013250	177740 	137760 	000000 		.word	1111111111100000,1011111111110000,0000000000000000
   1041	013256	177740 	137760 	000000 		.word	1111111111100000,1011111111110000,0000000000000000
   1042	013264	177740 	137760 	000000 		.word	1111111111100000,1011111111110000,0000000000000000
   1043	013272	177740 	137760 	000000 		.word	1111111111100000,1011111111110000,0000000000000000
   1044	013300	125200 	025252 	000000 		.word	1010101010000000,0010101010101010,0000000000000000
   1045	013306	000000 	000000 	000000 		.word	0000000000000000,0000000000000000,0000000000000000
   1046	013314	000000 	000000 	000000 		.word	0000000000000000,0000000000000000,0000000000000000
   1047	013322	000000 	000000 	000000 		.word	0000000000000000,0000000000000000,0000000000000000
   1048
   1049	013330	000000 	000000 	000000 	W23:	.word	0000000000000000,0000000000000000,0000000000000000
   1050	013336	000000 	000000 	000000 		.word	0000000000000000,0000000000000000,0000000000000000
   1051	013344	125000 	125252 	000000 		.word	1010101000000000,1010101010101010,0000000000000000
   1052	013352	177600 	177777 	000002 		.word	1111111110000000,1111111111111111,0000000000000010
   1053	013360	177600 	177703 	000002 		.word	1111111110000000,1111111111000011,0000000000000010
   1054	013366	001600 	177700 	000002 		.word	0000001110000000,1111111111000000,0000000000000010
   1055	013374	177600 	177777 	000002 		.word	1111111110000000,1111111111111111,0000000000000010
   1056	013402	177600 	177777 	000002 		.word	1111111110000000,1111111111111111,0000000000000010
   1057	013410	125000 	125252 	000000 		.word	1010101000000000,1010101010101010,0000000000000000
   1058	013416	000000 	000000 	000000 		.word	0000000000000000,0000000000000000,0000000000000000
   1059	013424	000000 	000000 	000000 		.word	0000000000000000,0000000000000000,0000000000000000
   1060	013432	000000 	000000 	000000 		.word	0000000000000000,0000000000000000,0000000000000000
   1061
   1062	013440	000000 	000000 	000000 	W24:	.word	0000000000000000,0000000000000000,0000000000000000
   1063	013446	000000 	000000 	000000 		.word	0000000000000000,0000000000000000,0000000000000000
   1064	013454	124000 	125252 	000002 		.word	1010100000000000,1010101010101010,0000000000000010
   1065	013462	177000 	177417 	000013 		.word	1111111000000000,1111111100001111,0000000000001011
   1066	013470	177000 	177417 	000013 		.word	1111111000000000,1111111100001111,0000000000001011
   1067	013476	177000 	177417 	000013 		.word	1111111000000000,1111111100001111,0000000000001011
   1068	013504	177000 	177777 	000013 		.word	1111111000000000,1111111111111111,0000000000001011
   1069	013512	177000 	177777 	000013 		.word	1111111000000000,1111111111111111,0000000000001011
   1070	013520	124000 	125252 	000002 		.word	1010100000000000,1010101010101010,0000000000000010
   1071	013526	000000 	000000 	000000 		.word	0000000000000000,0000000000000000,0000000000000000
GMOUSE - genius mouse DRAW for 	MACRO V05.06R Thursday 05-Sep-19 08:34  Page 4-23
Common definitions for bios monitor

   1072	013534	000000 	000000 	000000 		.word	0000000000000000,0000000000000000,0000000000000000
   1073	013542	000000 	000000 	000000 		.word	0000000000000000,0000000000000000,0000000000000000
   1074
   1075	013550	177700 	001777 	000000 	WP21:	.word	1111111111000000,0000001111111111,0000000000000000
   1076	013556	177700 	001777 	000000 		.word	1111111111000000,0000001111111111,0000000000000000
   1077	013564	177760 	007777 	000000 		.word	1111111111110000,0000111111111111,0000000000000000
   1078	013572	177777 	177777 	000000 		.word	1111111111111111,1111111111111111,0000000000000000
   1079	013600	177777 	177777 	000000 		.word	1111111111111111,1111111111111111,0000000000000000
   1080	013606	177777 	177777 	000000 		.word	1111111111111111,1111111111111111,0000000000000000
   1081	013614	177777 	177777 	000000 		.word	1111111111111111,1111111111111111,0000000000000000
   1082	013622	177777 	177777 	000000 		.word	1111111111111111,1111111111111111,0000000000000000
   1083	013630	177760 	007777 	000000 		.word	1111111111110000,0000111111111111,0000000000000000
   1084	013636	177700 	001777 	000000 		.word	1111111111000000,0000001111111111,0000000000000000
   1085	013644	177700 	001777 	000000 		.word	1111111111000000,0000001111111111,0000000000000000
   1086	013652	177700 	001777 	000000 		.word	1111111111000000,0000001111111111,0000000000000000
   1087
   1088	013660	177400 	007777 	000000 	WP22:	.word	1111111100000000,0000111111111111,0000000000000000
   1089	013666	177400 	007777 	000000 		.word	1111111100000000,0000111111111111,0000000000000000
   1090	013674	177700 	037777 	000000 		.word	1111111111000000,0011111111111111,0000000000000000
   1091	013702	177774 	177777 	000003 		.word	1111111111111100,1111111111111111,0000000000000011
   1092	013710	177774 	177777 	000003 		.word	1111111111111100,1111111111111111,0000000000000011
   1093	013716	177774 	177777 	000003 		.word	1111111111111100,1111111111111111,0000000000000011
   1094	013724	177774 	177777 	000003 		.word	1111111111111100,1111111111111111,0000000000000011
   1095	013732	177774 	177777 	000003 		.word	1111111111111100,1111111111111111,0000000000000011
   1096	013740	177700 	037777 	000000 		.word	1111111111000000,0011111111111111,0000000000000000
   1097	013746	177400 	007777 	000000 		.word	1111111100000000,0000111111111111,0000000000000000
   1098	013754	177400 	007777 	000000 		.word	1111111100000000,0000111111111111,0000000000000000
   1099	013762	177400 	007777 	000000 		.word	1111111100000000,0000111111111111,0000000000000000
   1100
   1101	013770	176000 	037777 	000000 	WP23:	.word	1111110000000000,0011111111111111,0000000000000000
   1102	013776	176000 	037777 	000000 		.word	1111110000000000,0011111111111111,0000000000000000
   1103	014004	177400 	177777 	000000 		.word	1111111100000000,1111111111111111,0000000000000000
   1104	014012	177760 	177777 	000017 		.word	1111111111110000,1111111111111111,0000000000001111
   1105	014020	177760 	177777 	000017 		.word	1111111111110000,1111111111111111,0000000000001111
   1106	014026	177760 	177777 	000017 		.word	1111111111110000,1111111111111111,0000000000001111
   1107	014034	177760 	177777 	000017 		.word	1111111111110000,1111111111111111,0000000000001111
   1108	014042	177760 	177777 	000017 		.word	1111111111110000,1111111111111111,0000000000001111
   1109	014050	177400 	177777 	000000 		.word	1111111100000000,1111111111111111,0000000000000000
   1110	014056	176000 	037777 	000000 		.word	1111110000000000,0011111111111111,0000000000000000
   1111	014064	176000 	037777 	000000 		.word	1111110000000000,0011111111111111,0000000000000000
   1112	014072	176000 	037777 	000000 		.word	1111110000000000,0011111111111111,0000000000000000
   1113
   1114	014100	170000 	177777 	000000 	WP24:	.word	1111000000000000,1111111111111111,0000000000000000
   1115	014106	170000 	177777 	000000 		.word	1111000000000000,1111111111111111,0000000000000000
   1116	014114	176000 	177777 	000003 		.word	1111110000000000,1111111111111111,0000000000000011
   1117	014122	177700 	177777 	000077 		.word	1111111111000000,1111111111111111,0000000000111111
   1118	014130	177700 	177777 	000077 		.word	1111111111000000,1111111111111111,0000000000111111
   1119	014136	177700 	177777 	000077 		.word	1111111111000000,1111111111111111,0000000000111111
   1120	014144	177700 	177777 	000077 		.word	1111111111000000,1111111111111111,0000000000111111
   1121	014152	177700 	177777 	000077 		.word	1111111111000000,1111111111111111,0000000000111111
   1122	014160	176000 	177777 	000003 		.word	1111110000000000,1111111111111111,0000000000000011
   1123	014166	170000 	177777 	000000 		.word	1111000000000000,1111111111111111,0000000000000000
   1124	014174	170000 	177777 	000000 		.word	1111000000000000,1111111111111111,0000000000000000
   1125	014202	170000 	177777 	000000 		.word	1111000000000000,1111111111111111,0000000000000000
   1126
   1127
   1128	014210	000000 	000000 	000000 	W41:	.word	0000000000000000,0000000000000000,0000000000000000
GMOUSE - genius mouse DRAW for 	MACRO V05.06R Thursday 05-Sep-19 08:34  Page 4-24
Common definitions for bios monitor

   1129	014216	000000 	000000 	000000 		.word	0000000000000000,0000000000000000,0000000000000000
   1130	014224	000000 	000000 	000000 		.word	0000000000000000,0000000000000000,0000000000000000
   1131	014232	177760 	007777 	000000 		.word	1111111111110000,0000111111111111,0000000000000000
   1132	014240	007760 	007760 	000000 		.word	0000111111110000,0000111111110000,0000000000000000
   1133	014246	007760 	000000 	000000 		.word	0000111111110000,0000000000000000,0000000000000000
   1134	014254	177760 	007777 	000000 		.word	1111111111110000,0000111111111111,0000000000000000
   1135	014262	177760 	007777 	000000 		.word	1111111111110000,0000111111111111,0000000000000000
   1136	014270	000000 	000000 	000000 		.word	0000000000000000,0000000000000000,0000000000000000
   1137	014276	000000 	000000 	000000 		.word	0000000000000000,0000000000000000,0000000000000000
   1138	014304	000000 	000000 	000000 		.word	0000000000000000,0000000000000000,0000000000000000
   1139	014312	000000 	000000 	000000 		.word	0000000000000000,0000000000000000,0000000000000000
   1140
   1141	014320	000000 	000000 	000000 	W42:	.word	0000000000000000,0000000000000000,0000000000000000
   1142	014326	000000 	000000 	000000 		.word	0000000000000000,0000000000000000,0000000000000000
   1143	014334	000000 	000000 	000000 		.word	0000000000000000,0000000000000000,0000000000000000
   1144	014342	177400 	177777 	000000 		.word	1111111100000000,1111111111111111,0000000000000000
   1145	014350	177400 	177400 	000000 		.word	1111111100000000,1111111100000000,0000000000000000
   1146	014356	000000 	177400 	000000 		.word	0000000000000000,1111111100000000,0000000000000000
   1147	014364	177400 	177777 	000000 		.word	1111111100000000,1111111111111111,0000000000000000
   1148	014372	177400 	177777 	000000 		.word	1111111100000000,1111111111111111,0000000000000000
   1149	014400	000000 	000000 	000000 		.word	0000000000000000,0000000000000000,0000000000000000
   1150	014406	000000 	000000 	000000 		.word	0000000000000000,0000000000000000,0000000000000000
   1151	014414	000000 	000000 	000000 		.word	0000000000000000,0000000000000000,0000000000000000
   1152	014422	000000 	000000 	000000 		.word	0000000000000000,0000000000000000,0000000000000000
   1153
   1154
   1155	014430	177760 	007777 	000000 	WP41:	.word	1111111111110000,0000111111111111,0000000000000000
   1156	014436	177760 	007777 	000000 		.word	1111111111110000,0000111111111111,0000000000000000
   1157	014444	177760 	007777 	000000 		.word	1111111111110000,0000111111111111,0000000000000000
   1158	014452	177777 	177777 	000000 		.word	1111111111111111,1111111111111111,0000000000000000
   1159	014460	177777 	177777 	000000 		.word	1111111111111111,1111111111111111,0000000000000000
   1160	014466	177777 	177777 	000000 		.word	1111111111111111,1111111111111111,0000000000000000
   1161	014474	177777 	177777 	000000 		.word	1111111111111111,1111111111111111,0000000000000000
   1162	014502	177777 	177777 	000000 		.word	1111111111111111,1111111111111111,0000000000000000
   1163	014510	177760 	007777 	000000 		.word	1111111111110000,0000111111111111,0000000000000000
   1164	014516	177760 	007777 	000000 		.word	1111111111110000,0000111111111111,0000000000000000
   1165	014524	177760 	007777 	000000 		.word	1111111111110000,0000111111111111,0000000000000000
   1166	014532	177760 	007777 	000000 		.word	1111111111110000,0000111111111111,0000000000000000
   1167
   1168	014540	177400 	177777 	000000 	WP42:	.word	1111111100000000,1111111111111111,0000000000000000
   1169	014546	177400 	177777 	000000 		.word	1111111100000000,1111111111111111,0000000000000000
   1170	014554	177400 	177777 	000000 		.word	1111111100000000,1111111111111111,0000000000000000
   1171	014562	177760 	177777 	000017 		.word	1111111111110000,1111111111111111,0000000000001111
   1172	014570	177760 	177777 	000017 		.word	1111111111110000,1111111111111111,0000000000001111
   1173	014576	177760 	177777 	000017 		.word	1111111111110000,1111111111111111,0000000000001111
   1174	014604	177760 	177777 	000017 		.word	1111111111110000,1111111111111111,0000000000001111
   1175	014612	177760 	177777 	000017 		.word	1111111111110000,1111111111111111,0000000000001111
   1176	014620	177400 	177777 	000000 		.word	1111111100000000,1111111111111111,0000000000000000
   1177	014626	177400 	177777 	000000 		.word	1111111100000000,1111111111111111,0000000000000000
   1178	014634	177400 	177777 	000000 		.word	1111111100000000,1111111111111111,0000000000000000
   1179	014642	177400 	177777 	000000 		.word	1111111100000000,1111111111111111,0000000000000000
   1180
   1181		000010 				.radix	8
   1182
   1183	014650	   000 	   000 	   000 	W81:	.byte	000,000,000,000
	014653	   000
   1184	014654	   000 	   000 	   000 		.byte	000,000,000,000
GMOUSE - genius mouse DRAW for 	MACRO V05.06R Thursday 05-Sep-19 08:34  Page 4-25
Common definitions for bios monitor

	014657	   000
   1185	014660	   000 	   000 	   000 		.byte	000,000,000,000
	014663	   000
   1186	014664	   000 	   000 	   000 		.byte	000,000,000,000
	014667	   000
   1187	014670	   000 	   377 	   377 		.byte	000,377,377,000
	014673	   000
   1188	014674	   000 	   000 	   377 		.byte	000,000,377,000
	014677	   000
   1189	014700	   000 	   377 	   377 		.byte	000,377,377,000
	014703	   000
   1190	014704	   000 	   377 	   377 		.byte	000,377,377,000
	014707	   000
   1191	014710	   000 	   000 	   000 		.byte	000,000,000,000
	014713	   000
   1192	014714	   000 	   000 	   000 		.byte	000,000,000,000
	014717	   000
   1193	014720	   000 	   000 	   000 		.byte	000,000,000,000
	014723	   000
   1194	014724	   000 	   000 	   000 		.byte	000,000,000,000
	014727	   000
   1195
   1196	014730	   000 	   377 	   377 	WP81:	.byte	000,377,377,000
	014733	   000
   1197	014734	   000 	   377 	   377 		.byte	000,377,377,000
	014737	   000
   1198	014740	   000 	   377 	   377 		.byte	000,377,377,000
	014743	   000
   1199	014744	   377 	   377 	   377 		.byte	377,377,377,377
	014747	   377
   1200	014750	   377 	   377 	   377 		.byte	377,377,377,377
	014753	   377
   1201	014754	   377 	   377 	   377 		.byte	377,377,377,377
	014757	   377
   1202	014760	   377 	   377 	   377 		.byte	377,377,377,377
	014763	   377
   1203	014764	   377 	   377 	   377 		.byte	377,377,377,377
	014767	   377
   1204	014770	   377 	   377 	   377 		.byte	377,377,377,377
	014773	   377
   1205	014774	   000 	   377 	   377 		.byte	000,377,377,000
	014777	   000
   1206	015000	   000 	   377 	   377 		.byte	000,377,377,000
	015003	   000
   1207	015004	   000 	   377 	   377 		.byte	000,377,377,000
	015007	   000
   1208
   1209		000010 				.radix	8
   1210
GMOUSE - genius mouse DRAW for 	MACRO V05.06R Thursday 05-Sep-19 08:34  Page 5
Common definitions for bios monitor

      1		000010 				 .radix		8
      2
      3	015010	000000 			Mode		:  .word  0			; þóæüý Â [0,3]
      4	015012	000000 			theByte		:  .word  0			; àýóÈóùüó ÷Áù.ùïÃïøï ÷ÁÞóâçï
      5	015014	000000 			theDot		:  .word  0			; àýóÈóùüó (ð Á÷ÃçïÅ) ð ÿïûÁó
      6	015016	000000 			ColLength	:  .word  0			; 4øüùï ÷ÁÞóâçï
      7	015020	000000 			Register	:  .word  0			; þóñüÀÁÞ òüÀúóÁÃóÞï
      8	015022	000000 			MemOffset	:  .word  0			; 0òÞóÀ ùïÃïøï ÷ÁÞóâçï
      9	015024	000000 			Y.offset	:  .word  0			; àýóÈóùüó ú÷ YÛ
     10	015026	000000 			X.		:  .word  0			;
     11	015030	000000 			Y.		:  .word  0			;
     12	015032	000000 			Y.now		:  .word  0			; áóçÖÈóó ú÷ø÷æóùüó ú÷ Y
     13	015034	077777 			X.prev		:  .word  77777
     14	015036	077777 			Y.prev		:  .word  77777
     15	015040	000001 			Exist		:  .word  1			; 0-exist, 1-no
     16	015042	000000 			markNumber	:  .word  0			; 0,10,20,...
     17
     18	015044	000004 			mark1Offset	:  .word  4
     19	015046	000006 			mark2Offset	:  .word  6
     20	015050	000004 			mark4Offset	:  .word  4
     21	015052	000004 			mark8Offset	:  .word  4
     22
     23	015054	000000 	000000 	000000 	ModeOffset	:  .word  0,0,0,0
	015062	000000
     24
     25	015064	176214 	000000 	000000 	TCUC		:  .WORD  MarkStat, 0, 0, 2000, SetMark, -1
	015072	002000 	001322'	177777
     26
     27	015100				Field		:
     28
     29		000000'				.end	begin
GMOUSE - genius mouse DRAW for 	MACRO V05.06R Thursday 05-Sep-19 08:34  Page 5-1
Symbol table

BEGIN   000000R     002	MP13    007310R     002	P.R0  = 000004   	SP11    002770R     002	V.HIGH= 000500 G
BLTMEM  001264R     002	MP14    007370R     002	P.R1  = 000006   	SP12    003050R     002	V.INIT= 100106
B.EF0 = 000001 G 	MP15    007450R     002	P.R2  = 000010   	SP13    003130R     002	V.KBD = 100126
B.EF1 = 000002 G 	MP16    007530R     002	P.R3  = 000012   	SP14    003210R     002	V.LOW = 000060 G
B.INT = 000004 G 	MP17    007610R     002	P.R4  = 000014   	SP15    003270R     002	V.PRRD= 100136
COLLEN  015016R     002	MP18    007670R     002	P.R5  = 000016   	SP16    003350R     002	V.RCRD= 100116
CR    = 000015 G 	MP21    010410R     002	P.SP  = 000020   	SP17    003430R     002	V.SCRN= 100132
C.HLT = 000004 G 	MP22    010520R     002	P.SUCC= 000000   	SP18    003510R     002	V.SLOT= 100142
C.IRQ = 000010 G 	MP23    010630R     002	P.TIM = 000052   	SP21    004370R     002	V.SUPR= 100076
C.TIM0= 100574   	MP24    010740R     002	P.TIM0= 000100   	SP22    004530R     002	V.TRRD= 100122
C.TIM1= 100576   	MP41    011210R     002	P.TIM1= 000102   	SP23    004670R     002	V.TR4H= 100066
DLBUF = 161060 G 	MP42    011270R     002	P.UR0 = 000026   	SP24    005030R     002	V.2TIO= 100102
DLCS  = 161062 G 	MP81    011430R     002	P.UR1 = 000030   	SP41    005470R     002	WIDE    002130R     002
EXIST   015040R     002	M.FLOP= 000002 G 	P.UR2 = 000032   	SP42    005630R     002	WMODE1  001740R     002
FIELD   015100R     002	M.INIT= 000001 G 	P.UR3 = 000034   	SP81    006160R     002	WMODE2  002000R     002
FREEMA= 100012   	M.KBD = 000020 G 	P.UR4 = 000036   	S.CNTR= 000000   	WMODE4  002020R     002
FREEPR= 100006   	M.PRRD= 000100 G 	P.UR5 = 000040   	S.FRST= 000002   	WMODE8  002030R     002
FREERE= 100004   	M.RCRD= 000004 G 	P.UR6 = 000042   	S.PRED= 000006   	WP11    012310R     002
FREESE= 100010   	M.RUN = 040000 G 	P.UR7 = 000044   	S.SUCC= 000004   	WP12    012370R     002
HEAP  = 100000   	M.SCRN= 000040 G 	RDPRED= 100024   	S11     002170R     002	WP13    012450R     002
HEAP$$= 100602   	M.SLOT= 000200 G 	RDSUCC= 100022   	S12     002250R     002	WP14    012530R     002
HIDEMA  000172R     002	M.TIO = 000400 G 	READYQ= 100020   	S13     002330R     002	WP15    012610R     002
HR0   = 161200 G 	M.TRRD= 000010 G 	REGIST  015020R     002	S14     002410R     002	WP16    012670R     002
HR1   = 161202 G 	M.VRQ = 100000 G 	REGLEN= 000014 G 	S15     002470R     002	WP17    012750R     002
HR2   = 161204 G 	M11     006350R     002	RUNNIN= 100016   	S16     002550R     002	WP18    013030R     002
HR3   = 161206 G 	M12     006430R     002	R.COPY= 000002   	S17     002630R     002	WP21    013550R     002
HR4   = 161210 G 	M13     006510R     002	R.MASK= 000000   	S18     002710R     002	WP22    013660R     002
HR5   = 161212 G 	M14     006570R     002	R.PROC= 000006   	S21     003570R     002	WP23    013770R     002
HR6   = 161214 G 	M15     006650R     002	R.RESE= 000012   	S22     003730R     002	WP24    014100R     002
HR7   = 161216 G 	M16     006730R     002	R.RQST= 000004   	S23     004070R     002	WP41    014430R     002
HSTACK= 140000   	M17     007010R     002	R.STAT= 000005   	S24     004230R     002	WP42    014540R     002
I.HLT = 000200 G 	M18     007070R     002	R.STRT= 000010   	S41     005170R     002	WP81    014730R     002
KBDBUF= 161064 G 	M21     007750R     002	SAV.PC= 100056   	S42     005330R     002	W11     011510R     002
KBDCSR= 161066 G 	M22     010060R     002	SAV.PS= 100060   	S81     005770R     002	W12     011570R     002
LF    = 000012 G 	M23     010170R     002	SAV.R0= 100040   	TCFLG = 100600   	W13     011650R     002
LOOKLI  000730R     002	M24     010300R     002	SAV.R1= 100042   	TCUC    015064R     002	W14     011730R     002
L.RDA = 150000 G 	M41     011050R     002	SAV.R2= 100044   	THEBYT  015012R     002	W15     012010R     002
L.REG = 140000 G 	M42     011130R     002	SAV.R3= 100046   	THEDOT  015014R     002	W16     012070R     002
MAPLEN= 100002   	M81     011350R     002	SAV.R4= 100050   	TIMEQU= 100026   	W17     012150R     002
MARKNU  015042R     002	PDPTR = 100572   	SAV.R5= 100052   	TMPRED= 100032   	W18     012230R     002
MARKST= 176214   	PICCSR= 161000 G 	SAV.SP= 100054   	TMSUCC= 100030   	W21     013110R     002
MARK1O  015044R     002	PICHEI= 000014   	SCRBAS= 060010   	TOP$$ = 100034   	W22     013220R     002
MARK2O  015046R     002	PICMR = 161002 G 	SEMLEN= 000010 G 	UR0   = 161220 G 	W23     013330R     002
MARK4O  015050R     002	PPIA  = 161030 G 	SETMAR  001322R     002	UR1   = 161222 G 	W24     013440R     002
MARK8O  015052R     002	PPIB  = 161032 G 	SHOWMA  000312R     002	UR2   = 161224 G 	W41     014210R     002
MCSR  = 176204   	PPIC  = 161034 G 	SMODE1  002034R     002	UR3   = 161226 G 	W42     014320R     002
MEMOFF  015022R     002	PPIP  = 161036 G 	SMODE2  002074R     002	UR4   = 161230 G 	W81     014650R     002
MEMUSE= 100014   	PROLEN= 000106 G 	SMODE4  002114R     002	UR5   = 161232 G 	XMOUSE= 176210
MODE    015010R     002	P.CPRC= 000050   	SMODE8  002124R     002	UR6   = 161234 G 	X.      015026R     002
MODEOF  015054R     002	P.DSUC= 000104   	SNDCSR= 161016 G 	UR7   = 161236 G 	X.PREV  015034R     002
MODES   001604R     002	P.MASK= 000046   	SNDC0R= 161010 G 	VECLEN= 000064 G 	YMOUSE= 176212
MODE1   001644R     002	P.MEM = 000056   	SNDC1R= 161012 G 	VRQFLG= 100036   	Y.      015030R     002
MODE2   001704R     002	P.NAME= 000060   	SNDC2R= 161014 G 	VRQTBL= 100146   	Y.NOW   015032R     002
MODE4   001724R     002	P.PC  = 000022   	SNLCSR= 161026 G 	V.BUT = 100072   	Y.OFFS  015024R     002
MODE8   001734R     002	P.PRED= 000002   	SNLC0R= 161020 G 	V.CPUH= 100062   	Y.PREV  015036R     002
MP11    007150R     002	P.PRI = 000054   	SNLC1R= 161022 G 	V.FLOP= 100112   	$$    = 000010
MP12    007230R     002	P.PS  = 000024   	SNLC2R= 161024 G
GMOUSE - genius mouse DRAW for 	MACRO V05.06R Thursday 05-Sep-19 08:34  Page 5-2
Symbol table


. ABS.	001000    000	(RW,I,GBL,ABS,OVR)
      	000000    001	(RW,I,LCL,REL,CON)
PROGRA	015100    002	(RW,I,GBL,REL,CON)
Errors detected:  0

*** Assembler statistics


Work  file  reads: 0
Work  file writes: 0
Size of work file: 9838 Words  ( 39 Pages)
Size of core pool: 16640 Words  ( 65 Pages)
Operating  system: RT-11

Elapsed time: 00:00:00.34
DK:GMXP,DK:GMXP=DK:GMXP
