.MAIN.	MACRO V05.06R Friday 30-Nov-18 09:49
Table of contents

    2- 462	common definitions for bios monitor
.MAIN.	MACRO V05.06R Friday 30-Nov-18 09:49  Page 1


      1					.enabl  lc
      2					.enabl	ama
      3					.enabl  gbl
      4					.mcall	.push,.pop
.MAIN.	MACRO V05.06R Friday 30-Nov-18 09:49  Page 3
Common definitions for bios monitor

      2
.MAIN.	MACRO V05.06R Friday 30-Nov-18 09:49  Page 4
Common definitions for bios monitor

      1					;----------------------------------------
      2					.macro	print	txt		;
      3						jsr	r5,	print	;
      4						.asciz	txt		;
      5						.even			;
      6					.endm				;
      7					;----------------------------------------
      8	000000	   015 	   030 	   031 	tabsim:	.byte	15,	30,	31,	32,	'G,	'H,	'I,	'P
	000003	   032 	   107 	   110
	000006	   111 	   120
      9	000010	   122 	   125 	   377 		.byte	'R,	'U,	377
     10					.even
     11	000014	000272'	000232'	000324'	tabjmp:	.word	close,	open,	pred,	succ,	ggg,	hhh,	iii,	exit
	000022	000332'	000466'	000216'
	000030	000464'	000000G
     12	000034	000446'	000224'			.word	rrr,	uuu
     13					;----------------------------------------
     14	000040				dbg00::
     15	000040					.push	<r5,r4,r3,r2,r1,r0>
     16	000054	010603 				mov	sp,	r3
     17	000056	000404 				br	db0
     18	000060				dbg::				;
     19	000060	013703 	100016 			mov	runnin,	r3	;
     20	000064	162703 	000014 			sub	#6*2,	r3	;
     21	000070				db0:	print	^\<15><12>\	;
     22	000100	012704 	000007 			mov	#7,	r4	;
     23	000104				5$:				;
     24	000104	012300 				mov	(r3)+,	r0	;
     25	000106	004537 	000602'			jsr	r5,	octout	;
     26	000112	077404 				sob	r4,	5$	;
     27	000114					rcpc			;
     28	000116	004537 	000602'			jsr	r5,	octout	;
     29	000122					rcps			;
     30	000124	004537 	000602'			jsr	r5,	octout	;
     31	000130	052704 	000344 			bis	#344,	r4	; ÀÿÞ÷À Äøïñ÷ð
     32					;----------------------------------------
     33	000134				dc1:					;
     34	000134					print	^\<15><12>"PK11/12 _>"\	;
     35	000156				dc1.3:					;
     36	000156	004537 	000660'			jsr	r5,	octinp		;
     37	000162				dc1.4:					;
     38	000162	005002 				clr	r2			;
     39	000164				dc1.5:					;
     40	000164	120062 	000000'			cmpb	r0,	tabsim(r2)	;
     41	000170	001003 				bne	dc1.10			;
     42	000172	006302 				asl	r2			;
     43	000174	000172 	000014'			jmp	@tabjmp(r2)		;
     44	000200				dc1.10:					;
     45	000200	005202 				inc	r2			;
     46	000202	103370 				bcc	dc1.5			;
     47	000204				dtrap4:					;
     48	000204				dc1.20:					;
     49	000204					print	<" ?">			;
     50	000214	000747 				br	dc1			;
     51					;----------------------------------------
     52	000216				hhh:				;
     53	000216	042704 	000004 			bic	#4,	r4	;
.MAIN.	MACRO V05.06R Friday 30-Nov-18 09:49  Page 4-1
Common definitions for bios monitor

     54	000222	000744 				br	dc1		;
     55					;--------------------------------
     56	000224				uuu:				;
     57	000224	052704 	000004 			bis	#4,	r4	;
     58	000230	000741 				br	dc1		;
     59					;--------------------------------
     60	000232				open:				;
     61	000232	106404 				mtps	r4		;
     62	000234	102001 				bvc	opn.10		;
     63	000236	010103 				mov	r1,	r3	;
     64	000240				opn.10:				;
     65	000240					print	<+/+>		;
     66	000246	011300 				mov	(r3),	r0	;
     67	000250	106404 				mtps	r4
     68	000252	001002 				bne	10$
     69	000254	010305 				mov	r3,	r5
     70	000256					mfus
     71	000260				10$:
     72	000260	004537 	000602'			jsr	r5,	octout	;
     73	000264	052704 	000341 			bis	#341,	r4	; Äøïñ '÷ÁçÞÊÁ÷ Àø÷ð÷'
     74	000270	000732 				br	dc1.3		;
     75					;----------------------------------------
     76	000272				close:				;
     77	000272	106404 				mtps	r4		;
     78	000274	103343 				bcc	dc1.20		;
     79	000276	102010 				bvc	cls.10		;
     80	000300	001006 				bne	10$
     81	000302	010305 				mov	r3,	r5
     82	000304	062705 	000002 			add	#2,	r5
     83	000310	010100 				mov	r1,	r0
     84	000312					mtus
     85	000314	000401 				br	cls.10
     86	000316				10$:
     87	000316	010113 				mov	r1,	(r3)	;
     88	000320				cls.10:				;
     89	000320	005304 				dec	r4		; ÀùÎÁË Äøïñ
     90	000322	000704 				br	dc1		;
     91					;----------------------------------------
     92	000324	012702 	177776 		pred:	mov	#-2,	r2	;
     93	000330	000402 				br	succ.1		;
     94	000332				succ:				;
     95	000332	012702 	000002 			mov	#2,	r2	;
     96	000336				succ.1:				;
     97	000336	106404 				mtps	r4		;
     98	000340	103321 				bcc	dc1.20		;
     99	000342	102010 				bvc	succ.2		;
    100	000344	001006 				bne	10$
    101	000346	010305 				mov	r3,	r5
    102	000350	062705 	000002 			add	#2,	r5
    103	000354	010100 				mov	r1,	r0
    104	000356					mtus
    105	000360	000401 				br	succ.2
    106	000362				10$:
    107	000362	010113 				mov	r1,	(r3)	;
    108	000364				succ.2:				;
    109	000364	060203 				add	r2,	r3	;
    110	000366					print	^\<15><12>\	;
.MAIN.	MACRO V05.06R Friday 30-Nov-18 09:49  Page 4-2
Common definitions for bios monitor

    111	000376	106404 				mtps	r4
    112	000400	001404 				beq	10$
    113	000402					print	<+H +>
    114	000412				10$:
    115	000412	010300 				mov	r3,	r0	;
    116	000414	004537 	000602'			jsr	r5,	octout	;
    117	000420					print	<+/+>		;
    118	000426	011300 				mov	(r3),	r0	;
    119	000430	106404 				mtps	r4		;
    120	000432	001002 				bne	20$		;
    121	000434	010305 				mov	r3,	r5
    122	000436					mfus
    123	000440				20$:
    124	000440	004537 	000602'			jsr	r5,	octout	;
    125	000444	000644 				br	dc1.3		;
    126					;----------------------------------------
    127	000446				rrr:
    128	000446					.pop	<r0,r1,r2,r3,r4,r5>
    129	000462	000207 				return
    130	000464				iii:				;
    131	000464	000111 				jmp	(r1)		;
    132					;--------------------------------
    133	000466				ggg:				;
    134	000466	010100 				mov	r1,	r0	;
    135	000470					wcpc			;
    136	000472	000137 	000000G			jmp	exit		;
    137					;--------------------------------
    138	000476				print:				; ðÊð÷ò ÀÁÞ÷çü ð asciz
    139	000476	032737 	000001 	161062 		bit	#1,	dlcs	;
    140	000504	001774 				beq	print		;
    141	000506	112537 	161060 			movb	(r5)+,	dlbuf	;
    142	000512	001371 				bne	print		;
    143	000514	005205 				inc	r5		;
    144	000516	042705 	000001 			bic	#1,	r5	;
    145	000522	000205 				rts	r5		;
    146					;----------------------------------------
    147	000524				getchr:				;
    148	000524	032737 	000002 	161062 		bit	#2,	dlcs	;
    149	000532	001774 				beq	getchr		;
    150	000534	013700 	161060 			mov	dlbuf,	r0	;
    151	000540	042700 	177600 			bic	#177600,r0	;
    152	000544	020027 	000140 			cmp	r0,	#140	;
    153	000550	103402 				bcs	putchr		;
    154	000552	042700 	000040 			bic	#40,	r0	;
    155	000556				putchr:				;
    156	000556	120027 	000040 			cmpb	r0,	#40	;
    157	000562	103406 				bcs	99$		;
    158	000564	032737 	000001 	161062 	40$:	bit	#1,	dlcs	;
    159	000572	001774 				beq	40$		;
    160	000574	010037 	161060 			mov	r0,	dlbuf	;
    161	000600	000205 			99$:	rts	r5		;
    162					;----------------------------------------
    163	000602				octout:				; úóÃïÁË ÃüÀøï üâ r1
    164	000602	010102 				mov	r1,	r2	; ú÷ÞÁüÁ: r0,r2
    165	000604	010001 				mov	r0,	r1	;
    166	000606	012700 	000030 			mov	#30,	r0	;
    167	000612	073027 	000001 			ashc	#1,	r0	;
.MAIN.	MACRO V05.06R Friday 30-Nov-18 09:49  Page 4-3
Common definitions for bios monitor

    168	000616	005201 				inc	r1		;
    169	000620				10$:				;
    170	000620	032737 	000001 	161062 		bit	#1,	dlcs	;
    171	000626	001774 				beq	10$		;
    172	000630	010037 	161060 			mov	r0,	dlbuf	;
    173	000634	012700 	000006 			mov	#6,	r0	;
    174	000640	073027 	000003 			ashc	#3,	r0	;
    175	000644	005701 				tst	r1		;
    176	000646	001364 				bne	10$		;
    177	000650	012700 	000040 			mov	#40,	r0	;
    178	000654	010201 				mov	r2,	r1	;
    179	000656	000737 				br	putchr		;
    180					;----------------------------------------
    181	000660				octinp:				; ÃüÀø÷ ð r1
    182	000660	010502 				mov	r5,	r2	; Äøïñ ðð÷òï ÃüÀøï : 2 ð r4
    183	000662	005001 				clr	r1		; âïðóÞÕïøËùüç  ð r0
    184	000664	042704 	000002 			bic	#2,	r4	; ú÷ÞÁüÁ: r0,r1,r2,r4
    185	000670				10$:				;
    186	000670	004537 	000524'			jsr	r5,	getchr	;
    187	000674	120027 	000060 			cmpb	r0,	#'0	;
    188	000700	103413 				bcs	99$		;
    189	000702	120027 	000070 			cmpb	r0,	#'8	;
    190	000706	103010 				bcc	99$		;
    191	000710	073127 	000003 			ashc	#3,	r1	;
    192	000714	042700 	177770 			bic	#^C7,	r0	;
    193	000720	050001 				bis	r0,	r1	;
    194	000722	052704 	000342 			bis	#342,	r4	;
    195	000726	000760 				br	10$		;
    196	000730	000202 			99$:	rts	r2		;
    197					;----------------------------------------
    198	000732	000652 			.print .-dbg
    199		000001 			.end
Errors detected:  0

*** Assembler statistics


Work  file  reads: 0
Work  file writes: 0
Size of work file: 9845 Words  ( 39 Pages)
Size of core pool: 15872 Words  ( 62 Pages)
Operating  system: RT-11

Elapsed time: 00:00:00.07
DK:P16DBG,DK:P16DBG=DK:P16,DK:P16DBG
