.MAIN.	MACRO V05.06R Wednesday 28-Nov-18 10:57  Page 1


      1					.enabl ama
      2		000012 			.radix	10
      3		137776 			mmm	= ^o137776
      4					;--------------------------------
      5	000000				unpack::			;
      6	000000	012737 	000001 	137776 		mov	#1,	mmm	;
      7	000006	012705 	000000G			mov	#prc$$$,r5	;
      8	000012	012700 	000504'			mov	#getx,	r0	;
      9	000016	012701 	000020 			mov	#16,	r1	;
     10	000022	004710 				call	(r0)		;
     11	000024	010203 				mov	r2,	r3	;
     12	000026	006303 				asl	r3		;
     13	000030	062703 	040000 			add	#^O40000,r3	;
     14	000034	010346 				mov	r3,	-(sp)	;
     15	000036	004710 				call	(r0)		;
     16	000040	006302 				asl	r2		;
     17	000042	160203 				sub	r2,	r3	;
     18	000044	010346 				mov	r3,	-(sp)	;
     19					;--------------------------------
     20	000046				10$:				;
     21	000046	020366 	000002 			cmp	r3,	2(sp)	;
     22	000052	103161 				bcc	unp0		;
     23	000054	012701 	000001 			mov	#1,	r1	;
     24	000060	010104 				mov	r1,	r4	;
     25	000062	004710 				call	(r0)		;
     26	000064	001051 				bne	62$		; ptr
     27					;--------------------------------
     28	000066	004710 				call	(r0)		;
     29	000070	001003 				bne	30$		;
     30	000072	012701 	000020 			mov	#16,	r1	; w16
     31	000076	000404 				br	33$		;
     32	000100	004710 			30$:	call	(r0)		;
     33	000102	001005 				bne	40$		;
     34	000104	012701 	000015 			mov	#13,	r1	; w13
     35	000110	004710 			33$:	call	(r0)		;
     36	000112	010223 				mov	r2,	(r3)+	;
     37	000114	000754 				br	10$		;
     38					;--------------------------------
     39	000116				40$:
     40	000116	004710 				call	(r0)		;
     41	000120	001432 				beq	60$		;
     42	000122	012701 	000003 			mov	#3,	r1	;
     43	000126	004710 				call	(r0)		;
     44	000130	060204 				add	r2,	r4	;
     45	000132	005204 				inc	r4		;
     46	000134	022704 	000007 			cmp	#7,	r4	;
     47	000140	103022 				bcc	60$		;
     48					;................................
     49	000142	042702 	177776 			bic	#^C1,	r2	;
     50	000146	005201 				inc	r1		; r1=4
     51	000150	004737 	000506'			call	getn		;
     52	000154	010204 				mov	r2,	r4	;
     53	000156	062704 	000011 			add	#9,	r4	;
     54	000162	022704 	000044 			cmp	#36,	r4	;
     55	000166	103010 				bcc	62$		;
     56					;................................
     57	000170	042702 	177774 			bic	#^C3,	r2	;
.MAIN.	MACRO V05.06R Wednesday 28-Nov-18 10:57  Page 1-1


     58	000174	004737 	000506'			call	getn		;
     59	000200	010204 				mov	r2,	r4	;
     60	000202	062704 	000044 			add	#36,	r4	;
     61	000206	005204 			60$:	inc	r4		; slen=2
     62					;--------------------------------
     63	000210	010446 			62$:	mov	r4,	-(sp)	; get.a
     64	000212	012701 	000003 			mov	#3,	r1	;
     65	000216	004710 				call	(r0)		;
     66	000220	010204 				mov	r2,	r4	;
     67	000222	072427 	000002 			ash	#2,	r4	;
     68	000226	062704 	000256'			add	#77$,	r4	;
     69	000232	012401 				mov	(r4)+,	r1	;
     70	000234	004710 				call	(r0)		;
     71	000236	061402 				add	(r4),	r2	;
     72	000240	005102 				com	r2		;
     73	000242	006302 				asl	r2		;
     74	000244	060302 				add	r3,	r2	;
     75	000246	012604 				mov	(sp)+,	r4	;
     76					;--------------------------------
     77	000250	012223 			64$:	mov	(r2)+,	(r3)+	;
     78	000252	077402 				sob	r4,	64$	;
     79	000254	000674 				br	10$		;
     80	000256	000003 	000000 	000003 	77$:	.word	3,0, 3,8, 6,16, 7,80, 8,208, 9,464, 11,976, 13,3024
	000264	000010 	000006 	000020
	000272	000007 	000120 	000010
	000300	000320 	000011 	000720
	000306	000013 	001720 	000015
	000314	005720
     81					;--------------------------------
     82	000316				ga0:				;
     83	000316	010446 				mov	r4,	-(sp)	;
     84	000320	012701 	000003 			mov	#3,	r1	;
     85	000324	004710 				call	(r0)		;
     86	000326	010204 				mov	r2,	r4	;
     87	000330	162704 	000004 			sub	#4,	r4	;
     88	000334	100415 				bmi	10$		;
     89	000336	072427 	000002 			ash	#2,	r4	;
     90	000342	062704 	000376'			add	#17$,	r4	;
     91	000346	012401 				mov	(r4)+,	r1	;
     92	000350	004710 				call	(r0)		;
     93	000352	061402 				add	(r4),	r2	;
     94	000354	021427 	000014 			cmp	(r4),	#12	;
     95	000360	001003 				bne	10$		;
     96	000362	022702 	000017 			cmp	#15,	r2	;
     97	000366	103401 				bcs	12$		;
     98	000370	000241 			10$:	clc			;
     99	000372	012604 			12$:	mov	(sp)+,	r4	;
    100	000374	000207 				return			;
    101	000376	000003 	000004 	000003 	17$:	.word	3,4,	3,12,	7,16,	13,144
	000404	000014 	000007 	000020
	000412	000015 	000220
    102					;--------------------------------
    103	000416				unp0:
    104	000416	012704 	040000 			mov	#^O40000,r4	;
    105	000422	012603 				mov	(sp)+,	r3	;
    106	000424				5$:				;
    107	000424	004737 	000316'			call	ga0		;
.MAIN.	MACRO V05.06R Wednesday 28-Nov-18 10:57  Page 1-2


    108	000430	103406 				bcs	20$		;
    109	000432	005702 				tst	r2		;
    110	000434	001402 				beq	15$		;
    111	000436				10$:				;
    112	000436	012324 				mov	(r3)+,	(r4)+	;
    113	000440	077202 				sob	r2,	10$	;
    114	000442	005202 			15$:	inc	r2		;
    115	000444	000411 				br	30$		;
    116	000446				20$:				;
    117	000446	162702 	000016 			sub	#14,	r2	;
    118	000452	022702 	000005 			cmp	#5,	r2	;
    119	000456	001004 				bne	30$		;
    120	000460	004737 	000316'			call	ga0		;
    121	000464	062702 	000005 			add	#5,	r2	;
    122	000470				30$:				;
    123	000470	005024 				clr	(r4)+		;
    124	000472	077202 				sob	r2,	30$	;
    125	000474	020416 				cmp	r4,	(sp)	;
    126	000476	103752 				bcs	5$		;
    127	000500	005726 				tst	(sp)+		;
    128	000502	000207 				return			;
    129					;----------------------------------------
    130	000504				getx:				;
    131	000504	005002 				clr	r2		;
    132	000506				getn:
    133	000506	010146 				mov	r1,	-(sp)	;
    134	000510	010046 				mov	r0,	-(sp)	;
    135	000512				1$:
    136	000512	006302 				asl	r2		;
    137	000514	033715 	137776 			bit	mmm,	(r5)	;
    138	000520	001401 				beq	5$		;
    139	000522	005202 				inc	r2		;
    140	000524				5$:				;
    141	000524	006337 	137776 			asl	mmm		;
    142	000530	103003 				bcc	15$		;
    143	000532	005725 				tst	(r5)+		;
    144	000534	005237 	137776 			inc	mmm		;
    145	000540				15$:				;
    146	000540	077114 				sob	r1,	1$	;
    147	000542	012600 				mov	(sp)+,	r0	;
    148	000544	012601 				mov	(sp)+,	r1	;
    149	000546	005702 				tst	r2		;
    150	000550	000207 				return			;
    151					;----------------------------------------
    152	000552	000552 			.print .-unpack
    153		000001 			.end
.MAIN.	MACRO V05.06R Wednesday 28-Nov-18 10:57  Page 1-3
Symbol table

GA0     000316R  	GETX    000504R  	PRC$$$= ****** GX	UNPACK  000000RG 	UNP0    000416R
GETN    000506R  	MMM   = 137776

. ABS.	000000    000	(RW,I,GBL,ABS,OVR)
      	000552    001	(RW,I,LCL,REL,CON)
Errors detected:  0

*** Assembler statistics


Work  file  reads: 0
Work  file writes: 0
Size of work file: 98 Words  ( 1 Pages)
Size of core pool: 16384 Words  ( 64 Pages)
Operating  system: RT-11

Elapsed time: 00:00:00.03
DK:P16UNP,DK:P16UNP=DK:P16UNP
